:020000040800F2
:1000000000000320B9020008554C0008594C0008B4
:100010005D4C0008614C0008654C000800000000C1
:10002000000000000000000000000000694C000813
:100030006D4C000800000000714C0008754C000871
:10004000E5020008E5020008E5020008E5020008F4
:10005000E5020008E5020008E5020008E5020008E4
:10006000E5020008E5020008E5020008E5020008D4
:10007000E5020008E5020008E5020008E5020008C4
:10008000E5020008E5020008E5020008E5020008B4
:10009000E5020008E5020008E5020008E5020008A4
:1000A000E5020008E5020008E5020008E502000894
:1000B000E5020008E5020008E5020008E502000884
:1000C000E5020008E5020008E5020008E502000874
:1000D000E5020008E5020008E5020008E502000864
:1000E000E5020008E5020008E5020008E502000854
:1000F000E5020008E5020008E5020008E502000844
:10010000E5020008E5020008E5020008E502000833
:10011000E5020008E5020008E5020008E502000823
:10012000E5020008E5020008E5020008E502000813
:10013000E5020008E5020008E5020008E502000803
:10014000E5020008E5020008E5020008E5020008F3
:10015000E5020008E5020008E5020008E5020008E3
:10016000E5020008E5020008E5020008E5020008D3
:10017000E5020008E5020008E502000800000000B2
:10018000E5020008E5020008E5020008E5020008B3
:10019000E5020008E5020008E5020008E5020008A3
:1001A000E5020008E5020008E5020008314B324A8A
:1001B0001360324A1360324B02E000221A600433AB
:1001C000304A9342F9D32C4B1B6813B92B4B1B6855
:1001D00003B1FEE7274B2C4A13602C4A13602C4BCB
:1001E0002C4A03E011681960043304322A498B4217
:1001F000F8D3254B1A68294B9A4204D1234B1A682D
:100200001B689A4200D0FEE700B583B003F040FDC2
:1002100001A8694603F0D6FC214C224B1C1BA410FC
:10022000002504E01E4B53F8253098470135AC42B9
:10023000F8DC1D4C1D4B1C1BA410002504E01A4BC0
:1002400053F8253098470135AC42F8DC0198009905
:1002500003F002FF0546164C164B1C1BA41004E0CD
:10026000013C134B53F824309847002CF8DC284607
:1002700003F07AFCBABADECAC4000020A003002052
:10028000C4000020A403002000000020C0000020C3
:10029000000000205C810008C40000207856341261
:1002A000E8020008E8020008E8020008E802000886
:1002B000E8020008E802000808B5FFF777FF00BF72
:1002C000FEE700BFFEE700BFFEE700BFFEE700BF9E
:1002D000FEE700BFFEE700BFFEE700BFFEE700BF8E
:0802E000FEE700BFFEE700BFCE
:1002E80010B5044602F070FB064BA3FB00308009F2
:1002F80000F0ACF84FF0FF302146002200F058F82B
:10030800002010BDD34D621008B50B4B1A6842F49B
:1003180000721A601A6842F480621A601A6842F41D
:1003280080721A60032000F025F80F20FFF7D8FF2D
:1003380001F0CAFE002008BD003C0240024A1368D2
:1003480001331360704700BFC8000020014B1868D4
:10035800704700BFC800002010B582B00190FFF7B9
:10036800F5FF0446FFF7F2FF001B019B9842F9D303
:1003780002B010BD10B50446C31E042B03D90A48A9
:10038800A42103F023FC04F00700084AD36823F4EF
:10039800E0631B041B0C43EA002040F0BF6040F4FC
:1003A8000030D06010BD00BFF054000800ED00E040
:1003B80070B504460E4615460F2A03D91A48BC21C3
:1003C80003F004FC0F2E03D91748BD2103F0FEFBF0
:1003D800164BDB68C3F30223C3F10702042A28BFC4
:1003E8000422191D062901D9D81E00E00020012386
:1003F80003FA02F2013A324002FA00F183405A1E2F
:100408002A400A43002C06DA04F00F041201D2B283
:10041800074B1A5570BD1201D2B204F1604404F5BD
:10042800614484F8002370BDF054000800ED00E03A
:1004380014ED00E0410900F01F0001238340024A47
:1004480042F82130704700BF00E100E00138B0F108
:10045800807F0AD2064B5860F021064A82F82310A2
:100468000020986007221A6070470120704700BF7B
:1004780010E000E000ED00E0002800F0008110B579
:10048800044603687F4A934231D0183293422ED0F3
:10049800183293422BD01832934228D01832934204
:1004A80025D01832934222D0183293421FD01832E6
:1004B80093421CD002F55672934218D018329342D8
:1004C80015D01832934212D0183293420FD01832F6
:1004D80093420CD01832934209D01832934206D076
:1004E8001832934203D06848B52103F06FFB636864
:1004F800C3B1B3F1007F15D0B3F1806F12D0B3F15F
:10050800C06F0FD0B3F1006F0CD0B3F1206F09D0DA
:10051800B3F1406F06D0B3F1606F03D05A48B621EB
:1005280003F054FBA3683BB1402B05D0802B03D0CC
:100538005548B72103F04AFBE368B3F5007F04D0C0
:100548001BB15148B82103F041FB2369B3F5806F13
:1005580004D01BB14C48B92103F038FB63694BB197
:10056800B3F5006F06D0B3F5805F03D04648BA21D3
:1005780003F02CFBA3694BB1B3F5005F06D0B3F5CC
:10058800804F03D04048BB2103F020FBE36943B10F
:10059800B3F5807F05D0202B03D03B48BC2103F066
:1005A80015FB236A63B1B3F5803F09D0B3F5003F6B
:1005B80006D0B3F5403F03D03348BD2103F006FB16
:1005C800636A2BB1042B03D02F48BE2103F0FEFA37
:1005D800636A23B3A36A032B03D92B48C32103F00F
:1005E800F5FAE36A63B1B3F5000F09D0B3F1807F80
:1005F80006D0B3F1C07F03D02348C42103F0E6FA44
:10060800236B63B1B3F5001F09D0B3F5800F06D093
:10061800B3F5C00F03D01C48C52103F0D7FA022355
:1006280084F8353020680268184B13406168A26866
:100638001143E26811432269114362691143A269B7
:100648001143E2691143226A0A431343626A042A86
:1006580003D1E16A226B0A4313430360226853699A
:1006680023F00703616A0B43042901D1A16A0B43F4
:1006780053610020E064012384F8353010BD012067
:10068800704700BF10600240245500083F8014F0F6
:100698000346002800F0088790F83520D2B2022AD5
:1006A80000F0048701680A6822F001020A60016804
:1006B80000220A6001684A6001688A600168CA60AD
:1006C80001680A610268212151610268AA498A42C7
:1006D80054D9A1F589618A424CD001F580618A42DA
:1006E80046D0A1F568718A4240D001F580618A42FE
:1006F8003AD0A1F589618A4233D001F580618A42F6
:100708002CD0A1F568718A4225D001F580618A4212
:100718001ED0A1F589618A4217D001F580618A420D
:1007280010D0A1F568718A4209D001F580618A422A
:1007380002D14FF480211EE04FF080711BE04FF48E
:10074800802118E04FF4802115E04FF4802112E059
:100758004FF480710FE04FF480710CE04FF480711A
:1007680009E04FF4807106E0844904E0834902E01F
:10077800824900E08149824AD1600EE181498A427A
:1007880053D9A8398A424CD001F580618A4246D0B3
:10079800A1F568718A4240D001F580618A423AD059
:1007A800A1F589618A4233D001F580618A422CD053
:1007B800A1F568718A4225D001F580618A421ED070
:1007C800A1F589618A4217D001F580618A4210D06B
:1007D800A1F568718A4209D001F580618A4202D187
:1007E8004FF480211EE04FF080711BE04FF4802110
:1007F80018E04FF4802115E04FF4802112E04FF407
:1008080080710FE04FF480710CE04FF4807109E0C3
:100818004FF4807106E0594904E0584902E057490D
:1008280000E05649564A9160B7E057498A4253D981
:1008380048398A424CD001F580618A4246D0A1F5F8
:1008480068718A4240D001F580618A423AD0A1F5A8
:1008580089618A4233D001F580618A422CD0A1F5A2
:1008680068718A4225D001F580618A421ED0A1F5BF
:1008780089618A4217D001F580618A4210D0A1F5BA
:1008880068718A4209D001F580618A4202D14FF429
:1008980080211EE04FF080711BE04FF4802118E0AA
:1008A8004FF4802115E04FF4802112E04FF480715D
:1008B8000FE04FF480710CE04FF4807109E04FF4C1
:1008C800807106E02D4904E02C4902E02B4900E044
:1008D8002A492E4AD16060E02D498A425AD001F552
:1008E80080618A4246D0A1F568718A4240D001F5FC
:1008F80080618A423AD0A1F589618A4233D001F5F4
:1009080080618A422CD0A1F568718A4225D001F510
:1009180080618A421ED0A1F589618A4217D001F50B
:1009280080618A4210D0A1F568718A4209D001F528
:1009380080618A4202D14FF480212CE04FF080710F
:1009480029E04FF4802126E04FF4802123E04FF482
:10095800802120E04FF480711DE04FF480711AE08F
:100968004FF4807117E04FF4807114E0034912E0EE
:10097800024910E001490EE058640240040080007A
:1009880000640240B86002405860024000600240C3
:1009980010600240AC49AD4A91601A68AC498A427D
:1009A80054D9A1F589618A424CD001F580618A4207
:1009B80046D0A1F568718A4240D001F580618A422B
:1009C8003AD0A1F589618A4233D001F580618A4223
:1009D8002CD0A1F568718A4225D001F580618A4240
:1009E8001ED0A1F589618A4217D001F580618A423B
:1009F80010D0A1F568718A4209D001F580618A4258
:100A080002D14FF400111EE04FF000611BE04FF4DB
:100A1800001118E04FF4001115E04FF4001112E036
:100A28004FF400610FE04FF400610CE04FF40061F7
:100A380009E04FF4006106E0202104E0202102E0F3
:100A4800202100E02021834AD1600EE182498A42B8
:100A580053D9A8398A424CD001F580618A4246D0E0
:100A6800A1F568718A4240D001F580618A423AD086
:100A7800A1F589618A4233D001F580618A422CD080
:100A8800A1F568718A4225D001F580618A421ED09D
:100A9800A1F589618A4217D001F580618A4210D098
:100AA800A1F568718A4209D001F580618A4202D1B4
:100AB8004FF400111EE04FF000611BE04FF40011ED
:100AC80018E04FF4001115E04FF4001112E04FF454
:100AD80000610FE04FF400610CE04FF4006109E0A1
:100AE8004FF4006106E0202104E0202102E02021EB
:100AF80000E02021574A9160B7E058498A4253D90B
:100B080048398A424CD001F580618A4246D0A1F525
:100B180068718A4240D001F580618A423AD0A1F5D5
:100B280089618A4233D001F580618A422CD0A1F5CF
:100B380068718A4225D001F580618A421ED0A1F5EC
:100B480089618A4217D001F580618A4210D0A1F5E7
:100B580068718A4209D001F580618A4202D14FF456
:100B680000111EE04FF000611BE04FF4001118E087
:100B78004FF4001115E04FF4001112E04FF400613A
:100B88000FE04FF400610CE04FF4006109E04FF40E
:100B9800006106E0202104E0202102E0202100E09D
:100BA80020212A4AD16060E02D498A425AD001F5B5
:100BB80080618A4246D0A1F568718A4240D001F529
:100BC80080618A423AD0A1F589618A4233D001F521
:100BD80080618A422CD0A1F568718A4225D001F53E
:100BE80080618A421ED0A1F589618A4217D001F539
:100BF80080618A4210D0A1F568718A4209D001F556
:100C080080618A4202D14FF400112CE04FF000615C
:100C180029E04FF4001126E04FF4001123E04FF4CF
:100C2800001120E04FF400611DE04FF400611AE06C
:100C38004FF4006117E04FF4006114E0202112E046
:100C4800202110E020210EE0040080000060024016
:100C58005864024000640240B86002405860024094
:100C6800106002402021AC4A91601A68AB498A4260
:100C780054D9A1F589618A424CD001F580618A4234
:100C880046D0A1F568718A4240D001F580618A4258
:100C98003AD0A1F589618A4233D001F580618A4250
:100CA8002CD0A1F568718A4225D001F580618A426D
:100CB8001ED0A1F589618A4217D001F580618A4268
:100CC80010D0A1F568718A4209D001F580618A4285
:100CD80002D14FF400211EE04FF000711BE04FF4E9
:100CE800002118E04FF4002115E04FF4002112E034
:100CF8004FF400710FE04FF400710CE04FF40071F5
:100D080009E04FF4007106E0082104E0082102E040
:100D1800082100E00821824AD1600CE181498A4219
:100D280053D9A8398A424CD001F580618A4246D00D
:100D3800A1F568718A4240D001F580618A423AD0B3
:100D4800A1F589618A4233D001F580618A422CD0AD
:100D5800A1F568718A4225D001F580618A421ED0CA
:100D6800A1F589618A4217D001F580618A4210D0C5
:100D7800A1F568718A4209D001F580618A4202D1E1
:100D88004FF400211EE04FF000711BE04FF40021EA
:100D980018E04FF4002115E04FF4002112E04FF461
:100DA80000710FE04FF400710CE04FF4007109E09E
:100DB8004FF4007106E0082104E0082102E0082150
:100DC80000E00821564A9160B5E057498A4253D954
:100DD80048398A424CD001F580618A4246D0A1F553
:100DE80068718A4240D001F580618A423AD0A1F503
:100DF80089618A4233D001F580618A422CD0A1F5FD
:100E080068718A4225D001F580618A421ED0A1F519
:100E180089618A4217D001F580618A4210D0A1F514
:100E280068718A4209D001F580618A4202D14FF483
:100E380000211EE04FF000711BE04FF4002118E084
:100E48004FF4002115E04FF4002112E04FF4007137
:100E58000FE04FF400710CE04FF4007109E04FF41B
:100E6800007106E0082104E0082102E0082100E002
:100E78000821294AD1605EE02C498A4258D001F500
:100E880080618A4246D0A1F568718A4240D001F556
:100E980080618A423AD0A1F589618A4233D001F54E
:100EA80080618A422CD0A1F568718A4225D001F56B
:100EB80080618A421ED0A1F589618A4217D001F566
:100EC80080618A4210D0A1F568718A4209D001F583
:100ED80080618A4202D14FF400212AE04FF000716C
:100EE80027E04FF4002124E04FF4002121E04FF4E3
:100EF80000211EE04FF400711BE04FF4007118E070
:100F08004FF4007115E04FF4007112E0082110E071
:100F180008210EE008210CE00060024058640240FD
:100F280000640240B860024058600240106002400D
:100F38000821A44A91601A68A3498A4250D9A1F5A8
:100F480089618A4248D001F580618A4242D0A1F580
:100F580068718A423CD001F580618A4236D0A1F599
:100F680089618A4230D001F580618A422AD0A1F590
:100F780068718A4224D001F580618A421ED0A1F5A9
:100F880089618A4217D001F580618A4210D0A1F5A3
:100F980068718A4209D001F580618A4202D14FF412
:100FA80080311AE04FF4800117E04FF4803114E0EB
:100FB8004FF4803111E04FF480310EE040210CE015
:100FC80040210AE0402108E0402106E07F4904E092
:100FD8007E4902E07D4900E07C497D4AD16002E11A
:100FE8007C498A424FD9A8398A4248D001F58061A4
:100FF8008A4242D0A1F568718A423CD001F58061ED
:101008008A4236D0A1F589618A4230D001F58061E3
:101018008A422AD0A1F568718A4224D001F58061FC
:101028008A421ED0A1F589618A4217D001F58061F4
:101038008A4210D0A1F568718A4209D001F5806111
:101048008A4202D14FF480311AE04FF4800117E050
:101058004FF4803114E04FF4803111E04FF48031C7
:101068000EE040210CE040210AE0402108E0402148
:1010780006E0564904E0554902E0544900E0534966
:10108800534A9160AFE054498A424FD948398A425D
:1010980048D001F580618A4242D0A1F568718A4240
:1010A8003CD001F580618A4236D0A1F589618A4237
:1010B80030D001F580618A422AD0A1F568718A4250
:1010C80024D001F580618A421ED0A1F589618A4247
:1010D80017D001F580618A4210D0A1F568718A4263
:1010E80009D001F580618A4202D14FF480311AE0BB
:1010F8004FF4800117E04FF4803114E04FF4803151
:1011080011E04FF480310EE040210CE040210AE06C
:10111800402108E0402106E02C4904E02B4902E088
:101128002A4900E02949274AD1605CE02B498A42D4
:1011380056D001F580618A4242D0A1F568718A4291
:101148003CD001F580618A4236D0A1F589618A4296
:1011580030D001F580618A422AD0A1F568718A42AF
:1011680024D001F580618A421ED0A1F589618A42A6
:1011780017D001F580618A4210D0A1F568718A42C2
:1011880009D001F580618A4202D14FF4803128E00C
:101198004FF4800125E04FF4803122E04FF4803194
:1011A8001FE04FF480311CE040211AE0402118E094
:1011B800402116E0402114E0044912E0034910E000
:1011C80002490EE0006002405864024001008000BD
:1011D80000640240B860024058600240106002405B
:1011E800B349B44A91601A68B3498A4254D9A1F5FF
:1011F80089618A424CD001F580618A4246D0A1F5C6
:1012080068718A4240D001F580618A423AD0A1F5DE
:1012180089618A4233D001F580618A422CD0A1F5D8
:1012280068718A4225D001F580618A421ED0A1F5F5
:1012380089618A4217D001F580618A4210D0A1F5F0
:1012480068718A4209D001F580618A4202D14FF45F
:1012580080111EE04FF080611BE04FF4801118E010
:101268004FF4801115E04FF4801112E04FF48061C3
:101278000FE04FF480610CE04FF4806109E04FF417
:10128800806106E0102104E0102102E0102100E056
:1012980010218A4AD16000E189498A4253D9A83984
:1012A8008A424CD001F580618A4246D0A1F5687126
:1012B8008A4240D001F580618A423AD0A1F589611D
:1012C8008A4233D001F580618A422CD0A1F5687139
:1012D8008A4225D001F580618A421ED0A1F5896134
:1012E8008A4217D001F580618A4210D0A1F5687151
:1012F8008A4209D001F580618A4202D14FF48011F7
:101308001EE04FF080611BE04FF4801118E04FF4AD
:10131800801115E04FF4801112E04FF480610FE066
:101328004FF480610CE04FF4806109E04FF4806174
:1013380006E0102104E0102102E0102100E0102155
:101348005E4A9160A9E05F498A4253D948398A4286
:101358004CD001F580618A4246D0A1F568718A4275
:1013680040D001F580618A423AD0A1F589618A426C
:1013780033D001F580618A422CD0A1F568718A4288
:1013880025D001F580618A421ED0A1F589618A4283
:1013980017D001F580618A4210D0A1F568718A42A0
:1013A80009D001F580618A4202D14FF480111EE014
:1013B8004FF080611BE04FF4801118E04FF480116A
:1013C80015E04FF4801112E04FF480610FE04FF404
:1013D80080610CE04FF4806109E04FF4806106E021
:1013E800102104E0102102E0102100E01021314A10
:1013F800D16052E034498A424CD001F580618A427A
:1014080046D0A1F568718A4240D001F580618A42D0
:101418003AD0A1F589618A4233D001F580618A42C8
:101428002CD0A1F568718A4225D001F580618A42E5
:101438001ED0A1F589618A4217D001F580618A42E0
:1014480010D0A1F568718A4209D001F580618A42FD
:1014580002D14FF480111EE04FF080611BE04FF481
:10146800801118E04FF4801115E04FF4801112E05C
:101478004FF480610FE04FF480610CE04FF480611D
:1014880009E04FF4806106E0102104E0102102E039
:10149800102100E01021074A91600020D86483F8E9
:1014A800350083F8340070470120704701207047E9
:1014B800010080000060024058640240006402405D
:1014C800B8600240586002401060024030B40568BD
:1014D800029C44EA03436B640368DA634368B3F528
:1014E800403F35D101F07F4201F47F0301F47F458D
:1014F800C9B284681CB92B431343194325E0012C56
:1015080002D12B43194320E0022C07D1DA0CAB0A95
:10151800D20242EA431343EAD10116E0032C0AD16E
:10152800D40FDA0CEB0A920242EA431343EAC433BB
:1015380043EAD10109E0140F1A0D2B0B120242EAFB
:10154800031343EA043343EA11110368996301E082
:101558000368D96030BC7047704700BF00284FD07F
:1015680010B504460268274B9A4203D02648B42196
:1015780002F02CFB636863B1B3F5803F09D0B3F583
:10158800003F06D0B3F5403F03D01F48B52102F015
:101598001DFBA368042B03D91B48B62102F016FBD8
:1015A800E368B3F5804F03D31748B72102F00EFB69
:1015B80094F8393013F0FF0F02D12046FFF7CCFF23
:1015C800022384F839302268136823F440336168B1
:1015D8000B4313602268536B23F00703A1680B4386
:1015E80053632268136C23F47F5323F03F03E168AD
:1015F8000B4313640020E063012384F8393010BDE5
:101608000120704700B00240545500082DE9F04110
:1016180082B0089E90F83840012C2CD01D46174601
:1016280088460446012380F83830022380F8393090
:10163800B6F5803F04D312484FF4B57102F0C6FAEC
:10164800B5F5804F04D30E4840F26B1102F0BEFA94
:101658002268136823F00103136000962046414670
:101668003A462B46FFF732FF2268136843F001031E
:101678001360002000E0022002B0BDE8F08100BF46
:101688005455000870B504460D4603681B6813F0EE
:10169800010F30D0FEF75AFE064627E059685A680F
:1016A80002F0010211F0200F00D15AB120229A60F5
:1016B800236801209860042384F83930002384F8D3
:1016C800383070BDB5F1FF3F10D025B1FEF73EFEB2
:1016D800801BA8420AD9002384F83830E36B43F012
:1016E8002003E363032084F8390070BD23685A6837
:1016F80012F0020FD2D02368DB6913F0200F24D038
:10170800FEF724FE06461BE05A6812F0080F06D0C2
:1017180008229A60042384F83930012070BDB5F19D
:10172800FF3F0DD025B1FEF711FE801BA84207D957
:10173800E36B43F02003E363032084F8390070BDB2
:1017480023685A6812F0100FDED0236802229A60CC
:10175800236810229A60012384F83930002084F825
:10176800380070BD90F83830012B00F0B18070B5AA
:101778000D460446012380F83830022380F83930BA
:10178800994204D9534840F24A3102F01FFA04EB57
:1017980005139B69B3F5804F04D34E4840F24B3193
:1017A80002F014FA6368B3F5403F15D004EB051353
:1017B800DB690A2B04D9474840F24E3102F006FA99
:1017C80063684BB104EB05131B6A022B04D941482B
:1017D80040F2513102F0FAF9002D39D12068436AFC
:1017E8003D49194004EB0513DB69A3F10902012AFD
:1017F8000BD8AA1C1201A618A25843EA0242736821
:1018080003F07F4313430B4309E0AA1C1201A618F7
:10181800A25843EA0243726843EA02630B434362F5
:1018280021688B6923F47F5323F03F0304EB0512EF
:10183800906903438B61D269093A012A41D804EBC4
:1018480005156A6A22F07F4213432268936238E0E2
:101858002068C3692049194004EB0513DB69A3F12B
:101868000902012A0BD8AA1C1201A618A25843EA99
:101878000242736803F07F4313430B4309E0AA1C39
:101888001201A618A25843EA0243726843EA0263A7
:101898000B43C36121680B6923F47F5323F03F0393
:1018A80004EB0512906903430B61D269093A012AD6
:1018B80007D804EB05156A6A22F07F4213432268B1
:1018C8001362012384F83930002084F8380070BD91
:1018D8000220704754550008F0FFFC002DE9F84F2E
:1018E80080460F460B881BB9B348C32102F06EF936
:1018F8007B68012B22D9112B20D0022B1ED0122B52
:101908001CD0AE4A934219D002F58012934215D0EA
:1019180002F58012934211D0A2F5F81293420DD02D
:1019280002F58012934209D002F58012934205D045
:10193800032B03D0A048C42102F048F9BB68022B4E
:1019480003D99D48C52102F041F900242EE1A146A2
:101958000125A5403B6803EA050AAA4540F0258110
:101968007B68022B01D0122B58D13B69002B45D044
:10197800092B43D0002B41D0002B3FD0F3B3EBB35E
:10198800012B3BD03AD0022B38D037D036D0032B9E
:1019980034D0042B32D031D030D0052B2ED02DD0DE
:1019A800092B2BD0062B29D0092B27D0072B25D084
:1019B80024D023D0082B21D020D01FD0092B1DD014
:1019C8001CD00A2B1AD019D00B2B17D00C2B15D0E2
:1019D80014D00D2B12D00F2B10D0052B0ED00DD0FC
:1019E8000CD0082B0AD009D00C2B07D0062B05D019
:1019F8000E2B03D07048D62102F0E8F8E608083626
:101A080058F8261004F0070080000F23834021EACD
:101A180003023B698340134348F82630D8F8003066
:101A28004FEA440B032606FA0BF6F64306EA0302CE
:101A38007B6803F0030303FA0BF31343C8F8003081
:101A48007B685A1E012A03D9112B01D0122B1CD1F5
:101A5800FB68032B03D95848E92102F0B7F8D8F8F6
:101A6800083006EA0302FB6803FA0BF31343C8F8CD
:101A78000830D8F8043023EA05037D68C5F300155B
:101A880005FA09F51D43C8F80450D8F80C3033405E
:101A9800BE6806FA0BF61E43C8F80C607B6813F0A4
:101AA800805F00F08280464A536C43F4804353645D
:101AB800A308991CA2F5803252F8211004F0030003
:101AC80080000F22824021EA02013E4A904537D029
:101AD80002F58062904531D002F5806290452BD0A6
:101AE80002F58062904525D002F5806290451FD0AE
:101AF80002F58062904519D002F58062904513D0B6
:101B080002F5806290450DD002F58062904507D0BD
:101B180002F58062904501D1092212E00A2210E004
:101B280008220EE007220CE006220AE0052208E05F
:101B3800042206E0032204E0022202E0012200E07F
:101B4800002282400A4302331F4941F823201F4BD9
:101B58001A686FEA0A0303EA0201786810F4803F02
:101B680001D04AEA0201194A1160526803EA0201E7
:101B7800786810F4003F01D04AEA0201134A516024
:101B8800926803EA0201786810F4801F01D04AEADB
:101B980002010E4A9160D2681340796811F4001F5F
:101BA80001D04AEA0203094AD36001340F2C7FF6B8
:101BB800CEAEBDE8F88F00BF8455000800001110B4
:101BC800003802400000024000380140003C01405B
:101BD80070B5054614460E4621B908484FF4D3712E
:101BE80001F0F4FF012C04D9044840F2A71101F0D8
:101BF800EDFF0CB12E8370BD6E8370BD8455000857
:101C0800F0B54D680468E368C3F30B431D44D20183
:101C18001444D4F8883003F47043C4F88830046856
:101C280016190B68E468C4F30B442344013343EAF0
:101C38000543C6F88830CD680468E368C3F30A032F
:101C48001D441444D4F88C3003F47043C4F88C3029
:101C5800046816198B68E468C4F30A042344013342
:101C680043EA0543C6F88C3003681344D3F894401C
:101C780024F00704C3F89440036813440C69C3F8BC
:101C8800944091F831E091F832308F690668164433
:101C9800D6F89C400025C6F89C500668164491F872
:101CA800304044EA0E2444EA034343EA0763C6F893
:101CB8009C3003681344D3F8984024F0FF04C3F819
:101CC8009840036813444C69C3F898400368134468
:101CD800D3F8A04024F4E06424F00704C3F8A0403B
:101CE80003681344CE690C6A3443C3F8A040036800
:101CF8001344D3F8AC40C3F8AC50036813444C6A9F
:101D0800C3F8AC400B695BB1012B0BD0042B0BD093
:101D1800022B0BD0032B0BD0072B0BD102240AE08C
:101D2800042408E0032406E0022404E0022402E07C
:101D3800022400E0012403681344D3F8B05005F0EE
:101D4800E025C3F8B050036813448D6A04FB05F41A
:101D5800E51C45EA0444C3F8B04003681344D3F8CB
:101D6800B44024F4FF6424F00704C3F8B4400368C3
:101D78001344C96AC3F8B41003681A44D2F884300B
:101D880043F00103C2F88430F0BD00BF704700BFC4
:101D9800002800F0E38038B504460268704B9A4288
:101DA80003D070489F2101F011FF6369B3F5805F8C
:101DB80003D36C48A02101F009FFA369B3F5006FB4
:101DC80003D36848A12101F001FFE369B3F5805FFF
:101DD80003D36448A22101F0F9FE236AB3F5006F2A
:101DE80003D36048A32101F0F1FEA36AB3F5006FA5
:101DF80003D35C48A42101F0E9FE636AB3F5805F70
:101E080003D35848A52101F0E1FE236BB3F5006F19
:101E180003D35448A62101F0D9FEE36AB3F5805FE5
:101E280003D35048A72101F0D1FE636833B1B3F161
:101E3800004F03D04B48A82101F0C8FEA36833B176
:101E4800B3F1804F03D04748A92101F0BFFEE368F2
:101E580033B1B3F1005F03D04248AA2101F0B6FEC6
:101E6800236933B1B3F1805F03D03E48AB2101F061
:101E7800ADFE94F8A13013F0FF0F02D12046FFF712
:101E880085FF022384F8A1302268936923F0704308
:101E98009361216888696368A2681343E2681A43FA
:101EA8002369134303438B6121688A682E4B1A40C8
:101EB8008A60656921688868A26942EA0542024326
:101EC8008A602168CA681A40CA60E5692168C868DA
:101ED800226A42EA05420243CA6021680A691A4036
:101EE8000A61656A21680869A26A42EA05420243F2
:101EF8000A61226851690B405361E06A226851699E
:101F0800236B43EA00430B43536194F8353094F84C
:101F1800362012042068C16A01F07F41C16221683D
:101F2800C86A42EA032394F8342013430343CB627C
:101F38002268536B43F0040353632268536B43F0E6
:101F4800020353632268936943F0010393610020FD
:101F5800C4F8A400012384F8A13038BD01207047DB
:101F680000680140B455000800F800F090F8A0306F
:101F7800012B00F08A802DE9F04190460E46074675
:101F8800012380F8A030022380F8A1309A4204D9B6
:101F98003F4840F2DB1101F019FE3369072B04D9E1
:101FA8003B484FF4EE7101F011FEF369B3F5806F11
:101FB80007D0B3F5C06F04D0354840F2DD1101F009
:101FC80005FE336A052B06D0072B04D030484FF4A2
:101FD800EF7101F0FBFD3368B3F5805F04D32C4843
:101FE80040F2DF1101F0F2FD7368B3F5803F04D3CE
:101FF80027484FF4F07101F0E9FDB368B3F5805F4D
:1020080004D3234840F2E11101F0E0FDF368B3F591
:10201800803F04D31E484FF4F17101F0D7FDB36936
:10202800FF2B04D91A4840F2E31101F0CFFDB36A3F
:10203800B3F5005F04D316484FF4F27101F0C6FD02
:10204800F36AB3F5006F04D3114840F2E51101F0CB
:10205800BDFD342404FB0874383435460FCD0FC455
:102068000FCD0FC40FCD0FC42B68236038463146FF
:102078004246FFF7C5FD3A680123536287F8A1304D
:10208800002087F8A000BDE8F0810220704700BF5B
:10209800B455000890F8A030012B11D0012280F827
:1020A800A020022380F8A13006498B6943F48033CD
:1020B8008B6180F8A120002380F8A0301846704773
:1020C8000220704700680140704700BF10B5174AEA
:1020D800136C43F0805313640122154B1A60FEF70A
:1020E80035F9044605E0FEF731F9001BB0F57A7FB3
:1020F80018D8104B5B6813F4803FF4D001220E4BC4
:102108001A60FEF723F9044605E0FEF71FF9001BE5
:10211800B0F57A7F08D8074B5B6813F4003FF4D01A
:10212800002010BD032010BD032010BD0038024060
:1021380040000E420070004044000E4238B504468C
:1021480003680F2B03D9B348FD2101F03FFD236835
:1021580013F0010F61D06368012B06D9052B04D059
:10216800AC484FF4817101F031FDAB4B9B6803F033
:102178000C03042B0AD0A84B9B6803F00C03082B14
:102188000ED1A54B5B6813F4800F09D0A24B1B68D6
:1021980013F4003F41D06368012B40F0FE813CE01E
:1021A80000229E4B1A70FEF7D1F8054607E0FEF7AD
:1021B800CDF8401B41F28833984200F2F081964BEB
:1021C8001B6813F4003FF2D12279944B1A706368AC
:1021D800012B11D1FEF7BAF8054607E0FEF7B6F86D
:1021E800401B41F28833984200F2DB818A4B1B681E
:1021F80013F4003FF2D010E0FEF7A8F8054607E018
:10220800FEF7A4F8401B41F28833984200F2CB81D4
:10221800814B1B6813F4003FF2D1236813F0020FBF
:102228006DD0E368012B04D97A484FF4A17101F00D
:10223800CDFC23691F2B04D9764840F2431101F0E5
:10224800C5FC754B9B6813F00C0F0AD0724B9B684A
:1022580003F00C03082B1CD16F4B5B6813F4800F41
:1022680017D16D4B1B6813F0020F03D0E368012BE5
:1022780040F09B816848026822F0F8012269F8233F
:1022880093FAA3F3B3FA83F3DBB29A400A430260EA
:1022980035E0E3680BB30122614B1A60FEF756F88C
:1022A800054605E0FEF752F8401B642800F27F81DE
:1022B800594B1B6813F0020FF4D05748036823F0FA
:1022C800F8012269F82393FAA3F3B3FA83F3DBB294
:1022D8009A4041EA0203036011E00022504B1A6061
:1022E800FEF734F8054605E0FEF730F8401B642891
:1022F80000F25F81484B1B6813F0020FF4D123688A
:1023080013F0080F2ED06369012B04D941484FF40C
:10231800C17101F05BFC636993B10122414B1A6002
:10232800FEF714F8054605E0FEF710F8401B642890
:1023380000F24181384B5B6F13F0020FF4D011E0CB
:102348000022384B1A60FEF701F8054605E0FDF754
:10235800FDFF401B642800F230812F4B5B6F13F0A8
:10236800020FF4D1236813F0040F6ED0A368012B79
:1023780006D9052B04D027484FF4D67101F026FC66
:10238800254A136C43F080531364A2F5E4321368B2
:1023980043F480731360FDF7D9FF054605E0FDF7A8
:1023A800D5FF401B642800F20A811F4B1B6813F4F9
:1023B800807FF4D000221D4B1A70FDF7C7FF054639
:1023C80007E0FDF7C3FF401B41F28833984200F253
:1023D800F880114B1B6F13F0020FF2D1227A134BC6
:1023E8001A70A368012B11D1FDF7B0FF054607E06D
:1023F800FDF7ACFF401B41F28833984200F2E380BE
:10240800054B1B6F13F0020FF2D01EE0FDF79EFF85
:10241800054615E0F455000800380240023802402D
:1024280000004742800E474200700040703802406A
:10243800FDF78CFF401B41F28833984200F2C580BB
:10244800684B1B6F13F0020FF2D1A369022B04D95A
:1024580065484FF4F87101F0B9FBA369002B00F04F
:10246800B680604A926802F00C02082A00F0B18037
:10247800022B7FD1E3693BB1B3F5800F04D05A48F2
:1024880040F2F91101F0A2FB236A3F2B04D9564808
:102498004FF4FD7101F09AFB636AC03BF02B04D93D
:1024A800514840F2FB1101F091FBA36A022B0AD0BC
:1024B800042B08D0062B06D0082B04D04A484FF42A
:1024C800FE7101F083FBE36A043B0B2B04D94648F9
:1024D80040F2FD1101F07AFB0022444B1A60FDF72F
:1024E80035FF054604E0FDF731FF401B642872D82C
:1024F8003C4B1B6813F0007FF5D1216A626A47F6EE
:10250800C07393FAA3F3B3FA83F3DBB29A4011438F
:10251800A36A5B08013B4FF4403292FAA2F2B2FA86
:1025280082F2D2B293400B43E26943EA0201E36AC2
:102538004FF0706292FAA2F2B2FA82F2D2B203FAC1
:1025480002F241EA020343F00053264A5360012293
:10255800264B1A60FDF7FAFE044604E0FDF7F6FE86
:10256800001B642839D81F4B1B6813F0007FF5D077
:10257800002038BD00221D4B1A60FDF7E7FE044617
:1025880004E0FDF7E3FE001B642828D8154B1B6800
:1025980013F0007FF5D1002038BD012038BD03209D
:1025A80038BD032038BD032038BD012038BD0320C5
:1025B80038BD032038BD032038BD032038BD0320B3
:1025C80038BD032038BD032038BD032038BD0020A6
:1025D80038BD012038BD032038BD032038BD032095
:1025E80038BD00BF00380240F4550008600047427B
:1025F80070B504460D460368013B0E2B04D9884884
:102608004FF4187101F0E2FA0F2D04D9844840F212
:10261800612101F0DBFA834B1B6803F00F03AB4227
:1026280080F08B80EAB27F4B1A701B6803F00F03AF
:10263800AB4240F05181236813F0020F1DD0A3680C
:10264800A3B1802B12D0902B10D0A02B0ED0B02B82
:102658000CD0C02B0AD0D02B08D0E02B06D0F02B02
:1026680004D06F4840F2772101F0B0FA6E498B68C8
:1026780023F0F002A36813438B60236813F0010F63
:1026880000F0E8806368022B04D9654840F27E2197
:1026980001F09CFA6268012A05D1634B1B6813F4A8
:1026A800003F0ED11AE1022A05D15F4B1B6813F0D7
:1026B800007F06D114E15C4B1B6813F0020F00F099
:1026C800118159498B6823F0030313438B60FDF78D
:1026D8003DFE05466368012B0FD107E0FDF736FE86
:1026E800401B41F28833984200F2FE804E4B9B68B3
:1026F80003F00C03042BF1D1ACE0022B17D107E057
:10270800FDF724FE401B41F28833984200F2EE8028
:10271800454B9B6803F00C03082BF1D19AE0FDF7B9
:1027280015FE401B41F28833984200F2E1803E4B8F
:102738009B6813F00C0FF2D18CE0236813F0020FA2
:102748001DD0A368A3B1802B12D0902B10D0A02B42
:102758000ED0B02B0CD0C02B0AD0D02B08D0E02B39
:1027680006D0F02B04D02E4840F2C62101F02EFAF4
:102778002D498B6823F0F002A36813438B6023680C
:1027880013F0010F5ED06368022B04D9244840F28D
:10279800CD2101F01BFA6268012A05D1224B1B6882
:1027A80013F4003F0ED1A5E0022A05D11E4B1B6889
:1027B80013F0007F06D19FE01B4B1B6813F0020F3C
:1027C80000F09C8018498B6823F0030313438B6047
:1027D800FDF7BCFD06466368012B0FD107E0FDF746
:1027E800B5FD801B41F28833984200F289800E4B78
:1027F8009B6803F00C03042BF1D123E0022B1CD1BE
:1028080006E0FDF7A3FD801B41F28833984279D892
:10281800054B9B6803F00C03082BF2D112E000BFB4
:10282800F4550008003C024000380240FDF78EFDD8
:10283800801B41F28833984266D8354B9B6813F069
:102848000C0FF3D1EAB2334B1A701B6803F00F0375
:10285800AB425BD1236813F0040F19D0E36883B14E
:10286800B3F5805F0DD0B3F5A05F0AD0B3F5C05FB4
:1028780007D0B3F5E05F04D0274840F21D3101F0DE
:10288800A5F923498B6823F4E052E36813438B606E
:10289800236813F0080F1AD0236983B1B3F5805F5A
:1028A8000DD0B3F5A05F0AD0B3F5C05F07D0B3F57C
:1028B800E05F04D018484FF4497101F087F9144AD1
:1028C800936823F46043216943EAC10393600F20AE
:1028D800FDF706FD002070BD012070BD012070BD10
:1028E800012070BD012070BD032070BD032070BDA4
:1028F800032070BD012070BD012070BD012070BD96
:10290800032070BD032070BD032070BD012070BD81
:1029180000380240003C0240F4550008274B9B68F1
:1029280003F00C03042B46D0082B01D02448704731
:10293800224B586800F03F00596801F480014FF4B9
:10294800800292FAA2F2B2FA82F2D2B231FA02F319
:1029580010D01C4BB3FBF0F3184A506847F6C0720E
:10296800104092FAA2F2B2FA82F2D2B2D04000FB40
:1029780003F30FE0124BB3FBF0F3104A506847F62D
:10298800C072104092FAA2F2B2FA82F2D2B2D040E9
:1029980000FB03F3094A506800F440304FF440321A
:1029A80092FAA2F2B2FA82F2D2B2D04001304000DA
:1029B800B3FBF0F070470348704700BF003802408F
:1029C8000024F40000127A0008B5FFF7A7FF094BAE
:1029D8009B6803F0F002F02393FAA3F3B3FA83F3AE
:1029E800DBB222FA03F3044AD35CD840034B1860E5
:1029F80008BD00BF00380240E45500080C00002064
:102A080038B504460368013B2E2B03D9BE486D2117
:102A180001F0DCF8236813F0030F00F0838063688B
:102A2800C03BF02B03D9B848782101F0CFF8002239
:102A3800B64B1A60FDF78AFC054605E0FDF786FCF3
:102A4800401B642800F28281B14B1B6813F0006FB1
:102A5800F4D1236813F0010F1ED0A368023B052BA5
:102A680003D9A9488E2101F0B1F8626847F6C0730E
:102A780093FAA3F3B3FA83F3DBB202FA03F1A26881
:102A88004FF0E04393FAA3F3B3FA83F3DBB29A402F
:102A98000A439F4BC3F88420236813F0020F2FD0FA
:102AA800E368023B0D2B03D997489B2101F08EF870
:102AB800E369013B1F2B03D993489C2101F086F859
:102AC8009348D0F8843003F0E0434FF0E04292FAA4
:102AD800A2F2B2FA82F2D2B223FA02F16568E3688E
:102AE8001A0642EA851343EA0173C0F88430D0F825
:102AF8008C3023F01F02E369013B1343C0F88C308C
:102B08000122824B1A60FDF721FC054605E0FDF71E
:102B18001DFC401B642800F21B817D4B1B6813F0D1
:102B2800006FF4D0236813F00C0F00F09A8023692B
:102B3800C03BF02B03D97448C12101F047F80022AB
:102B4800744B1A60FDF702FC054605E0FDF7FEFB35
:102B5800401B642800F2FE806D4B1B6813F0005F79
:102B6800F4D1236813F0040F30D06369023B0D2BB6
:102B780003D96548D62101F029F8236A013B1F2BA8
:102B880003D96148D72101F021F86149D1F888308B
:102B980003F0E0434FF0E04292FAA2F2B2FA82F276
:102BA800D2B223FA02F2206963691B0643EA801352
:102BB80043EA0273C1F88830D1F88C3023F4F85313
:102BC800226A013A43EA0223C1F88C30236813F0E1
:102BD800080F34D0A369023B052B03D94A48E621E4
:102BE80000F0F4FF636A63B1B3F5803F09D0B3F531
:102BF800003F06D0B3F5403F03D04348E72100F03B
:102C0800E5FF4349D1F8883003F070634FF07062F4
:102C180092FAA2F2B2FA82F2D2B2D34022691B0629
:102C280043EA8213A26943EA0273C1F88830D1F8F3
:102C38008C3023F44032636A1343C1F88C3001228C
:102C4800344B1A60FDF782FB054605E0FDF77EFB75
:102C5800401B642800F280802D4B1B6813F0005F36
:102C6800F4D0236813F0200F66D0294A136C43F080
:102C780080531364A2F5E432136843F4807313603D
:102C8800FDF764FB054604E0FDF760FB401B642884
:102C980064D8214B1B6813F4807FF5D01C4B1A6F46
:102CA800A36A534013F4407F09D0194A136F23F4E1
:102CB80040731A4901200860002008601367A36A5E
:102CC800B3F5807F0FD1FDF741FB054606E0FDF720
:102CD8003DFB401B41F28833984241D80C4B1B6F97
:102CE80013F0020FF3D0A36A03F44072B2F5407FE9
:102CF80016D107498A6822F4F81223F0704323F4A6
:102D0800407313438B6010E0245600086800474264
:102D1800003802407000474200700040400E4742B1
:102D2800114A936823F4F81393600F4A116FA36A4A
:102D3800C3F30B030B431367236813F0100F11D071
:102D480094F82C20094B1A60002038BD032038BDA8
:102D5800032038BD032038BD032038BD032038BD0B
:102D6800032038BD002038BD00380240E01147423A
:102D7800704700BFD8B138B504460D4690F82C30DE
:102D880013F0FF0F01D1FFF7F3FF022384F82C3073
:102D9800214651F8040B00F02DFD20682946626891
:102DA80000F0CCFD012384F82C30002038BD012030
:102DB800704700BF38B590F82C30DBB2022B14D026
:102DC8000D460446022380F82C30006800F048FEC7
:102DD8002B68022B04D1052384F82C30002038BD41
:102DE800012384F82C30002038BD022038BD00BFF4
:102DF80090F82C30DBB2022B0CD010B5044602231D
:102E080080F82C30006800F08DFE012384F82C3007
:102E1800002010BD022070472DE9F04106460C46FF
:102E280090461D46FDF792FA0746B8F1000F2AD0E2
:102E38005BE0B5F1FF3F26D025B1FDF787FAC01B4F
:102E4800A84220D93268536823F0E00353603268FF
:102E5800136823F040031360B36AB3F5005F09D128
:102E68003268136823F4005313603268136843F41C
:102E780000531360012386F85130002386F8503040
:102E88000320BDE8F08133689B682340A342D0D17A
:102E98000020BDE8F081B5F1FF3F26D025B1FDF750
:102EA80055FAC01BA84220D93268536823F0E003C2
:102EB80053603268136823F040031360B36AB3F5B4
:102EC800005F09D13268136823F400531360326835
:102ED800136843F400531360012386F8513000232C
:102EE80086F850300320BDE8F08133689B682340A2
:102EF800A342D0D00020BDE8F08100BF704700BFDA
:102F0800002800F0AD8010B50446436833B1B3F52E
:102F1800827F03D05348B22100F058FEA3684BB11A
:102F2800B3F5806F06D0B3F5004F03D04D48B321F9
:102F380000F04CFEE368B3F5006F04D01BB14948BC
:102F4800B42100F043FE23692BB1022B03D045487E
:102F5800B52100F03BFE6369012B03D94148B62136
:102F680000F034FEA369B3F5007F07D033B1B3F5A1
:102F7800802F03D03B48B72100F028FEE3698BB1CE
:102F8800082B0FD0102B0DD0182B0BD0202B09D0CD
:102F9800282B07D0302B05D0382B03D03148B82147
:102FA80000F014FE236A2BB1802B03D02D48B921E1
:102FB80000F00CFE636A2BB1102B03D02948BA210C
:102FC80000F004FEA36A33B1B3F5005F03D02548CF
:102FD800BB2100F0FBFDE36A013B4FF6FE72934212
:102FE80003D92048BC2100F0F1FD94F8513013F0CA
:102FF800FF0F02D12046FFF781FF022384F85130EA
:103008002268136823F04003136021686268A3688C
:103018001A43E3681A4323691A4363691A43A36985
:1030280003F400731343E2691343226A1343A26A49
:103038001A430A602168638B03F00402636A13432E
:103048004B602368E26A1A612268D36923F400633B
:10305800D361002084F85200012384F8513010BD58
:103068000120704758560008704700BF80B110B55E
:1030780004460268136823F040031360FFF7F4FF67
:10308800002084F8520084F8510084F8500010BDE4
:1030980001207047F8B504461D4690F85130DBB260
:1030A800012B40F0D0800F461646002900F0CD8055
:1030B800002A00F0CC8083683BB1B3F5004F04D000
:1030C800674840F26D1100F081FD94F85030012BF3
:1030D80000F0BF80012384F85030122384F8513067
:1030E800002384F852302763A686E686E364A36447
:1030F800A387E387A36AB3F5005F09D12268136841
:1031080023F4005313602268136843F400531360D8
:10311800A368B3F5004F04D12268136843F48043D1
:10312800136023681A6812F0400F03D11A6842F03E
:1031380040021A60E368002B2CD1636813B1E38E58
:10314800012B1AD12268236B591C21631B78D36089
:10315800E38E013BE38610E02046022100222B4645
:10316800FFF75AFE002876D12268236B591C216389
:103178001B78D360E38E013BE386E38E002BEBD113
:10318800A36AB3F5005F33D12268136843F4805310
:1031980013602DE0636813B1E38E012B1CD1236803
:1031A800226B1288DA60236B02332363E38E013BC0
:1031B800E38611E02046022100222B46FFF72CFE71
:1031C80000284AD12368226B1288DA60236B023305
:1031D8002363E38E013BE386E38E002BEAD1A36AE7
:1031E800B3F5005F04D12268136843F48053136079
:1031F8002046022100222B46FFF70EFE38B194F834
:10320800523043F0200384F85230032326E020464E
:10321800802101222B46FFF7FFFD034638B194F8C1
:10322800523043F0200384F85230032316E0A2689A
:1032380012B92268D1689268012284F851200022CC
:1032480084F850200AE0022308E0012306E0012365
:1032580004E0022302E0032300E003231846F8BD3C
:1032680058560008F0B583B004460E4617461D466A
:1032780090F85130DBB2012B02D0222B40F088812C
:10328800002E00F08781002F00F08681002D00F0CD
:103298008581A36823B19F4840F2C72100F096FCBE
:1032A80094F85030012B00F07B81012384F85030D2
:1032B80094F85130DBB2012B02D1322384F851301B
:1032C800002384F85230A763A587E5872663A5867F
:1032D800E586A364E364A36AB3F5005F09D12268B5
:1032E800136823F4005313602268136843F40053EF
:1032F800136023681A6812F0400F03D11A6842F06D
:1033080040021A60E368B3F5006F7DD163682BB1A2
:10331800B3F5827F0CD1E38E012B09D12368226B90
:103328001288DA60236B02332363E38E013BE38662
:10333800E38E002B4DD1A36AB3F5005F04D1226858
:10334800136843F480531360204601210022089B30
:10335800FFF762FD002840F02581A36B2268D26840
:103368001A80A36B0233A363E38F013BE387BEE0BC
:10337800204602210022089BFFF74EFD002840F05E
:1033880013812368226B1288DA60236B023323636C
:10339800E38E013B9BB2E38643B9A36AB3F5005FB2
:1033A80004D12268136843F4805313602046012136
:1033B8000022089BFFF730FD002840F0F780A36B40
:1033C8002268D2681A80A36B0233A363E38F013BA0
:1033D800E387E38E002BCBD16368002B40F0878016
:1033E800204601210022089BFFF716FD002840F027
:1033F800DF80A36B2268D2681A80A36B0233A363B1
:10340800E38F013BE38772E063682BB1B3F5827FFA
:103418000BD1E38E012B08D12268236B591C216341
:103428001B78D360E38E013BE386E38E002B48D103
:10343800A36AB3F5005F04D12268136843F480538C
:103448001360204601210022089BFFF7E5FC0028B5
:1034580040F0B080A36B2268D2681A70E38F013BFA
:10346800E38744E0204602210022089BFFF7D4FCB2
:10347800002840F0A1802268236B591C21631B7827
:10348800D360E38E013B9BB2E38643B9A36AB3F5ED
:10349800005F04D12268136843F480531360204608
:1034A80001210022089BFFF7B7FC002840F0868026
:1034B800A36B5A1CA2632268D2681A70E38F013B7F
:1034C800E387E38E002BCDD1636883B920460121C1
:1034D8000022089BFFF7A0FC002871D1A36B5A1C9F
:1034E800A2632268D2681A70E38F013BE387A36A5C
:1034F800B3F5005F15D1204601210022089BFFF794
:103508008BFC48B194F8523043F0020384F85230EF
:10351800032356E0585600082368DB689BB2ADF8D1
:103528000630204680210122089BFFF775FC0346E0
:1035380038B194F8523043F0200384F85230032312
:103548003FE0012284F8512021688A6802F01002C5
:10355800A06AB0F5005F17D1B2B194F8523043F0C9
:10356800020384F85230B0F5005F08D10B6823F4E9
:1035780000530B602268136843F400531360002360
:1035880084F8503001231CE0002284F8502018E011
:10359800022316E0012314E0012312E0012310E0C6
:1035A80002230EE003230CE003230AE0032308E0D0
:1035B800032306E0032304E0032302E0032300E0DF
:1035C8000323184603B0F0BDF0B585B004461E4687
:1035D80090F85130DBB2012B40F0F7800F461546CA
:1035E800002900F0F480002A00F0F38090F85030B1
:1035F800012B00F0F080012380F85030222380F85E
:103608005130002380F85230A163A287E287836497
:10361800C3648386C3868368B3F5004F04D1026808
:10362800136823F480431360A36AB3F5005F09D1DC
:103638002268136823F4005313602268136843F464
:10364800005313606368B3F5827F0CD1A36853B944
:1036580084F850300096204639463A462B46FFF704
:1036680001FE0546BEE023681A6812F0400F03D138
:103678001A6842F040021A60E36893B131E02046CC
:10368800012100223346FFF7C7FB002840F0A58040
:10369800A36B5A1CA2632268D2681A70E38F013B9D
:1036A800E387E38F012BEAD8A36AB3F5005F24D13F
:1036B8002268136843F4805313601EE020460121FA
:1036C80000223346FFF7A8FB002840F08880A36B50
:1036D8002268D2681A80A36B0233A363E38F013B8D
:1036E800E387E38F012BE9D8A36AB3F5005F04D120
:1036F8002268136843F48053136020460121002296
:103708003346FFF789FB054600286AD1E36833B9D9
:10371800A36B5A1CA2632268D2681A7006E0A36BD6
:103728002268D2681A80A36B0233A363E38F013B3C
:10373800E387A36AB3F5005F13D120460121002275
:103748003346FFF769FB38B194F8523043F002036F
:1037580084F85230032545E02368DB689BB2ADF856
:103768000E306368B3F5827F0BD1A368B3F5004FC1
:1037780002D0B3F5806F04D12268136823F04003A8
:103788001360012384F851302268936803F0100312
:10379800A16AB1F5005F14D19BB194F8523043F09F
:1037A800020384F85230136823F40053136022682C
:1037B800136843F400531360002384F85030012544
:1037C80010E0002384F850300CE002250AE00125BF
:1037D80008E0012506E0022504E0032502E00325B0
:1037E80000E00325284605B0F0BD00BF90F8510061
:1037F800704700BF38B505460C464E4B984204D07A
:103808004D4840F2BD3100F0E1F92368012B04D99D
:10381800494840F2BE3100F0D9F96368032B04D956
:10382800454840F2BF3100F0D1F9A36843B1042BF9
:1038380006D0082B04D040484FF4707100F0C6F948
:10384800E36843B1102B06D0202B04D03A4840F24D
:10385800C13100F0BBF9236933B1402B04D036489D
:1038680040F2C23100F0B2F96369802B0AD0B3F597
:10387800807F07D0B3F5C07F04D02F4840F2C33112
:1038880000F0A4F9A3693BB1B3F5007F04D02A483E
:103898004FF4717100F09AF9E36953B1B3F5006F11
:1038A80007D0B3F5406F04D0234840F2C53100F08B
:1038B8008DF9236A3BB1B3F5805F04D01E4840F20E
:1038C800C63100F083F9636A53B1B3F5005F07D0DE
:1038D800B3F5804F04D0184840F2C73100F076F9AC
:1038E8002368012B12D06268A3681A43E3681A435D
:1038F80023691A4363691A43A3691A43E3691A439C
:10390800236A1A43636A13432B6011E0E269236A4E
:103918001A43636A1A436168A3681943E368194341
:103928002369194363691943A3690B432A606B60D0
:10393800002038BD400100A08856000870B5054633
:103948000C461646444B984204D0444840F2FB319A
:1039580000F03CF92368013B0F2B04D93F484FF492
:103968007F7100F033F96368013B0F2B04D93B48A2
:1039780040F2FD3100F02AF9A368013B0F2B04D96E
:10398800364840F2FE3100F021F9E368013B0F2B85
:1039980004D9324840F2FF3100F018F92369013B9D
:1039A8000F2B04D92D484FF4806100F00FF963699B
:1039B800013B0F2B04D9294840F2014100F006F9D8
:1039C800A369013B0F2B04D9244840F2024100F0BF
:1039D800FDF8012E04D9214840F2034100F0F6F821
:1039E800012E1BD02368013B6668013E43EA061698
:1039F800A068013846EA0023E168013943EA01304A
:103A08002269013A40EA02416369013B41EA0352F3
:103A1800A369013B42EA0363AB601AE02368013BF8
:103A28006168013943EA0113A268013A43EA0221B5
:103A38002369013B41EA0342A369013B42EA03636C
:103A4800E268511E6269013A120542EA0132EB60EE
:103A5800AA60002070BD00BF400100A08856000881
:103A680070B582B005460C461646002301932B4BD1
:103A7800984204D02A484FF4906100F0A7F82368D0
:103A8800062B04D9264840F2814100F09FF863686C
:103A9800102B08D0082B06D0182B04D0204840F251
:103AA800824100F093F8A368013B0F2B04D91C480E
:103AB80040F2834100F08AF8E368B3F5005F04D36D
:103AC800174840F2844100F081F822686368134384
:103AD800A268013A43EA4213E26843EA42230193A7
:103AE800019B2B61FCF732FC0446AB6913F0200FF5
:103AF8000AD0B6F1FF3F09D056B1FCF727FC001BEE
:103B0800B04207D8012006E0002004E0012002E0CE
:103B1800032000E0032002B070BD00BF400100A0F8
:103B28008856000838B504460D460B4B984204D019
:103B38000A4840F2AD4100F049F8B5F5005F04D3FA
:103B4800064840F2AE4100F041F8616941EA45019A
:103B58006161002038BD00BF400100A08856000800
:103B6800FEE700BF08B5034800F056F80120FFF74C
:103B7800F7FF00BFB856000808B50D4B1B6813B90E
:103B88000C4A0B4B1A600A4B1A68C31C23F0030338
:103B9800134409498B4206D901F06CF80C230360E1
:103BA8004FF0FF3008BD02490B60104608BD00BF4A
:103BB800CC000020A403002000FC022001230360A5
:103BC800014B0B60704700BF0400002008B5034696
:103BD8000A460348194600F005F8FFF7C3FF00BF7F
:103BE8000C5700080FB400B583B004AB53F8042B8E
:103BF80001930848802101F075F8011E03DD05488E
:103C080000F03EF80146084603B05DF804EB04B046
:103C1800704700BFD400002010B5044601F030F80A
:103C28000146204600F02CF80248012100F028F84F
:103C380010BD00BF3857000810B400221AE04FF03A
:103C48006043D3F8803E13F0010F06D04FF0604375
:103C5800D3F8003E13F0010F01D110460DE04FF0EC
:103C680060431B68002BFAD004784FF060431C7047
:103C7800013201308A42E2D308465DF8044B7047AE
:103C880008B5FFF7D9FF08BD08B500F001F808BD71
:103C98000C4B1A6842F001021A60002199601A68F8
:103CA80022F0847222F480321A60074A5A601A6835
:103CB80022F480221A60D9604FF00062034B9A60A8
:103CC800704700BF003802401030002400ED00E0CB
:103CD800F02070474FF4A070704700BF08B500F09F
:103CE800E5FA08BD08B52920FFF7F8FF08BD00BFB1
:103CF80008B52820FFF7F2FF08BD00BF08B500F09F
:103D0800B9FA08BDA84B1B78002B40F04B8110B5C1
:103D18000124A54B1C7000F063FACA20FFF7DEFFF0
:103D2800C320FFF7EBFF0820FFF7E8FF5020FFF75D
:103D3800E5FFCF20FFF7D2FF0020FFF7DFFFC1200C
:103D4800FFF7DCFF3020FFF7D9FFED20FFF7C6FFB4
:103D58006420FFF7D3FF0320FFF7D0FF1220FFF7FF
:103D6800CDFF8120FFF7CAFFE820FFF7B7FF8520C6
:103D7800FFF7C4FF0020FFF7C1FF7820FFF7BEFF61
:103D8800CB20FFF7ABFF3920FFF7B8FF2C20FFF758
:103D9800B5FF0020FFF7B2FF3420FFF7AFFF022086
:103DA800FFF7ACFFF720FFF799FF2020FFF7A6FFEA
:103DB800EA20FFF793FF0020FFF7A0FF0020FFF79E
:103DC8009DFFB120FFF78AFF0020FFF797FF1B2018
:103DD800FFF794FFB620FFF781FF0A20FFF78EFF59
:103DE800A220FFF78BFFC020FFF778FF1020FFF716
:103DF80085FFC120FFF772FF1020FFF77FFFC52066
:103E0800FFF76CFF4520FFF779FF1520FFF776FFD6
:103E1800C720FFF763FF9020FFF770FF3620FFF7FA
:103E28005DFFC820FFF76AFFF220FFF757FF002069
:103E3800FFF764FFB020FFF751FFC220FFF75EFFD6
:103E4800B620FFF74BFF0A20FFF758FFA720FFF720
:103E580055FF2720FFF752FF0420FFF74FFF2A20C6
:103E6800FFF73CFF0020FFF749FF0020FFF746FF60
:103E78000020FFF743FFEF20FFF740FF2B20FFF75D
:103E88002DFF0020FFF73AFF0020FFF737FF2046FD
:103E9800FFF734FF3F20FFF731FFF620FFF71EFF43
:103EA8002046FFF72BFF0020FFF728FF0620FFF72B
:103EB80025FF2C20FFF712FFC82000F03BFA262030
:103EC800FFF70CFF2046FFF719FFE020FFF706FF7A
:103ED8000F20FFF713FF2920FFF710FF2420FFF71B
:103EE8000DFF0C20FFF70AFF0E20FFF707FF092040
:103EF800FFF704FF4E20FFF701FF7820FFF7FEFED3
:103F08003C20FFF7FBFE0920FFF7F8FE1320FFF720
:103F1800F5FE0520FFF7F2FE1720FFF7EFFE112050
:103F2800FFF7ECFE0020FFF7E9FEE120FFF7D6FEE1
:103F38000020FFF7E3FE1620FFF7E0FE1B20FFF747
:103F4800DDFE0420FFF7DAFE1120FFF7D7FE072079
:103F5800FFF7D4FE3120FFF7D1FE3320FFF7CEFE66
:103F68004220FFF7CBFE0520FFF7C8FE0C20FFF725
:103F7800C5FE0A20FFF7C2FE2820FFF7BFFE2F204C
:103F8800FFF7BCFE0F20FFF7B9FE1120FFF7A6FED2
:103F9800C82000F0CFF92920FFF7A0FE2C20FFF75A
:103FA8009DFE10BD704700BF5401002008B500F009
:103FB80099F908BD08B5054B1B780BB9FFF7A2FEA8
:103FC800D3200321FFF7F2FF80B208BD540100207F
:103FD80030B59FB01D4A136C43F080531364A2F5AB
:103FE800E432136843F44043136001230D930E93A6
:103FF800022413944FF480031493082515954FF465
:10400800B47316931794072318930DA8FEF796F820
:10401800FEF75CF80F2319931A9400231B934FF4AF
:10402800A0531C934FF480531D9319A80521FEF744
:10403800DFFA0195C0230593042307934FF4003357
:104048000A9301A8FEF7DCFC1FB030BD003802401F
:1040580008B5FCF759F9FFF7BBFF00F0AFFA0020ED
:104068004FF0504100F018FA0020012100F05EFAEC
:10407800002000F055FA4FF0FF2000F0F9FA4FF059
:10408800FF2000F07FFA4FF0FF3000F06FFA00F0E9
:104098000DFB01201049024600F014FC4FF4FA70A1
:1040A800FCF75AF90D4800F07BFA05200C4901226B
:1040B80000F008FC4FF4FA70FCF74EF9094800F0DC
:1040C8006FFA08200849012200F0FCFB1420122195
:1040D8000A2200F007FCFEE7F880000848000020EC
:1040E80000810008500000201481000800B587B046
:1040F8000C4B5A6C42F480125A641A6B42F020023C
:104108001A634FF46073019302230293039301230C
:10411800049305230593044801A9FDF7DFFB07B0C5
:104128005DF804FB003802400014024010B5104846
:10413800FFF75CFBD0B90E4C0E4B23601823E361EC
:104148000023A36063612361A3620722E262E36044
:1041580023624FF40072A26163624FF4827363605A
:104168002046FFF7C3FF2046FEF7CAFE10BD00BF7A
:10417800580100200050014008B50348FEF776FFBB
:10418800FFF7D4FF08BD00BF5801002000B583B079
:1041980002A921F8020D06480122064B1B68FEF70A
:1041A80079FF08B1FFF7E8FF03B05DF804FB00BF33
:1041B800580100205800002000B583B00246064888
:1041C80001A9064B1B68FFF7FFF908B1FFF7D4FFF9
:1041D800019803B05DF804FB580100205800002046
:1041E8002DE9F04186B0204C236B43F0080323638C
:1041F8004FF40053019301250295002603960227E8
:104208000497DFF86C80404601A9FDF767FB236B34
:1042180043F0080323634FF48053019302950396F8
:104228000497404601A9FDF759FB236B43F00403AB
:104238002363042401940295039604970B4F384690
:104248000DEB0401FDF74AFB384621463246FDF7DF
:10425800BFFC384621462A46FDF7BAFCFFF766FF41
:1042680006B0BDE8F08100BF0038024000080240F7
:10427800000C024038B505460A484FF400510122A7
:10428800FDF7A6FC084C204604210022FDF7A0FCFF
:104298002846FFF77BFF204604210122FDF798FC02
:1042A80038BD00BF000C02400008024038B5054682
:1042B8000A484FF400510022FDF78AFC084C2046BA
:1042C80004210022FDF784FC2846FFF75FFF204603
:1042D80004210122FDF77CFC38BD00BF000C024020
:1042E80000080240F8B507460E46104C2046042147
:1042F8000022FDF76DFC0E4D28464FF400510022B8
:10430800FDF766FC3846FFF741FF3046FFF754FFDC
:10431800064628464FF400510122FDF759FC204675
:1043280004210122FDF754FC3046F8BD0008024084
:10433800000C024008B5FCF70FF808BD30B587B08F
:10434800314B5A6C42F080625A641A6B42F4000294
:104358001A631A6B42F001021A631A6B42F00202E6
:104368001A631A6B42F004021A631A6B42F00802CD
:104378001A631A6B42F020021A631A6B42F0400269
:104388001A6341F658030193022302930022039211
:1043980004930E2305931D4801A9FDF79FFA4FF4D6
:1043A800706301931A4D284601A9FDF797FA4FF457
:1043B80098630193174801A9FDF790FA48230193E0
:1043C800154801A9FDF78AFA4FF480630193134851
:1043D80001A9FDF783FA4FF40C630193104C2046B2
:1043E80001A9FDF77BFA03230193092305932846C6
:1043F80001A9FDF773FA4FF4A0530193204601A9D0
:10440800FDF76CFA07B030BD0038024000000240EA
:104418000004024000080240000C02400014024060
:1044280000180240F0B583B004460E4615461F46F4
:104438000F484FF44033436000238360089BC360F8
:104448000C4B0360FDF78AF880B909482146FDF74F
:1044580089F958B900970648099932462B46FDF75D
:10446800D5F818B902480A21FDF70CF903B0F0BDD8
:10447800C801002000B0024008B5024B1B689B6AC7
:10448800984708BD9C03002008B5024B1B68DB6AEF
:10449800984708BD9C03002070B58EB004460E46B0
:1044A80000250195FFF7E8FF02900395FFF7ECFF61
:1044B800049005950A96FF23069307958DF83450C6
:1044C8008DF835508DF836504FF4C06308930723A4
:1044D8000993FFF7D1FF0B90FFF7D6FF0C900D4D16
:1044E800284601A92246FDF741FD0B4A61000B1938
:1044F8009B0013444FF0FF305860084898600C4404
:10450800A4004FF07F4313512846FDF7C3FD0EB0BA
:1045180070BD00BF38020020B0010020500000200C
:10452800014B1860704700BFAC01002001290AD177
:104538000D4B1B6803EBC010D0F8843043F0010327
:10454800C0F8843009E0084B1B6803EBC010D0F8B2
:10455800843023F00103C0F88430034B1A68536A8F
:1045680043F001035362704738020020034B1B6875
:1045780003EB43039B00024AD0507047AC01002074
:10458800B0010020044B1B6803EB43039B00034A64
:1045980013445860704700BFAC010020B0010020F0
:1045A800044B1B6803EB43039B00034A13449860C6
:1045B800704700BFAC010020B001002038B51F4C87
:1045C8001F4B2360092363610123A3611D23E3615A
:1045D8000323236240F20D13636240F24313A36284
:1045E80040F21713E36240F247132363002584F86F
:1045F800365084F8345084F8355012480823036044
:10460800C0230361042383614FF400334362FEF740
:10461800F7F96560A560E5602561FFF78FFE204624
:10462800FDF7B6FB084B094A13601B68984700F072
:10463800D9FA0748FFF7B4FF284638BD38020020EA
:104648000068014008020020100000209C030020A0
:1046580050000020044B1B6803EB43039B00034AF4
:1046680013449868704700BFAC010020B0010020D7
:10467800F0B583B007460B4B1C6834230A4A03FB8A
:104688000423DE6DFFF7F8FE0546FFF7FDFE03463F
:10469800002200920197204631462A46FFF7C2FEC3
:1046A80003B0F0BDAC0100203802002008B5034B70
:1046B8001B689B6803B1984708BD00BF9C03002096
:1046C800F8B507460C461646064B1A683421064BC1
:1046D80001FB0233DD6DFFF7CFFE00FB047045F8E8
:1046E8002060F8BDAC010020380200202DE9F04F11
:1046F80083B081460E460092324B1B6803EB43039E
:104708009B00314A13449B68DA8801929D8805F121
:10471800070B4FEAEB0BC5EBCB085FFA88F84FF0B5
:10472800000A48E00AFB0BF3009A1A44BBF1010F98
:1047380003D0BBF1020F03D008E0009AD75C0DE06C
:104748000099CF5C537843EA072707E00099CF5CCC
:1047580053781B0243EA074397781F43002424E059
:104768002B1B4344013B012202FA03F33B420DD0C9
:1047780009EB0400134B1B6803EB43039B0080B257
:104788003146114AD258FFF79BFF0DE009EB0400B0
:104798000C4B1B6803EB43039B000B4A134480B28A
:1047A80031465A68FFF78CFF0134A542D8D8013644
:1047B800B6B20AF1010A019B5345B3D803B0BDE86C
:1047C800F08F00BFAC010020B001002038B50A4BC3
:1047D8001B6803EB43039B00084C23449C68256833
:1047E800203AE38803FB02F2A3880733DB1003FBBC
:1047F8000252FFF77BFF38BDAC010020B00100205A
:104808002DE9F04106460F46154698461346002402
:1048180001E0013413465A1C1B78002BF9D1FFF72D
:104828002BFE264B1B6803EB43039B00244A1344CF
:104838009B689B88B0FBF3F0B8F1010F03D0B8F187
:10484800020F07D00AE0001B00FB03F006EB50063E
:10485800B6B203E0041B13FB0466B6B2002412E0F0
:104868003046394615F8012BFFF7B0FF134B1B688C
:1048780003EB43039B00124A13449B689B881E4426
:10488800B6B20134A4B295F80080FFF7F5FD0B4BE2
:104898001B6803EB43039B00094A13449B689A88EF
:1048A80002FB140080B218F1000318BF01239042E4
:1048B80038BF0023002BD3D1BDE8F081AC01002024
:1048C800B001002070B504460E461546FFF7C2FE3B
:1048D800C18811FB04F1002089B232462B46FFF74C
:1048E8008FFF70BD2DE9F04F87B082468B4653008D
:1048F800C3F10303019300924FF0000981E01FFA0E
:1049080089F404EB0A039BB21A46BDF80050C5EBC4
:104918000B081FFA88F83E4E3E4F3B6803EB4303F3
:104928009B00029210464146F258FFF7C9FEC4EBBD
:104938000A039BB219463B6803EB43039B000391B0
:1049480008464146F258FFF7BBFE0AEB05039BB247
:104958001A46C4EB0B081FFA88F83B6803EB4303BD
:104968009B00049210464146F258FFF7A9FEC5EB9A
:104978000A039BB219463B6803EB43039B0005916E
:1049880008464146F258FFF79BFE5D44ADB23B68CE
:1049980003EB43039B0002982946F258FFF790FE69
:1049A8003B6803EB43039B0003982946F258FFF743
:1049B80087FE5C44A4B23B6803EB43039B00049866
:1049C8002146F258FFF77CFE3B6803EB43039B004C
:1049D80005982146F258FFF773FE019B002B04DA75
:1049E80003EB89030633019309E0009AC2EB09033C
:1049F800019901EB83030A330193531E009309F1D4
:104A08000109009B99457FF67AAF07B0BDE8F08FA2
:104A1800B0010020AC01002030B587B03F4B9A6B45
:104A280042F001029A631A6B42F480021A631A6B0D
:104A380042F002021A631A6B42F004021A631A6BFC
:104A480042F008021A631A6B42F010021A631A6BDA
:104A580042F020021A631A6B42F040021A630223E2
:104A680002930493002503950C23059306AC602359
:104A780044F8143D2A482146FCF730FF01230193EE
:104A880028482146FCF72AFF4CF203730193264875
:104A98002146FCF723FF4FF68373019323482146F1
:104AA800FCF71CFF4FF63F03019321482146FCF712
:104AB80015FF48F2331301931E482146FCF70EFFF9
:104AC8001D4C65608023A3604FF40073E3604FF4CE
:104AD800806323614FF4805363614FF48043A36183
:104AE800E5614FF40033236265620323A362E56244
:104AF8002563124B2360124B1C63A3632046FBF70C
:104B0800C7FD2046FBF7B8FC382029462A46FBF7A4
:104B18004FFC3820FBF78EFC07B030BD0038024050
:104B28000004024000080240000C0240001002404D
:104B38000014024000180240F002002010640240F5
:104B48005C0300202DE9F04782B082464FF0000850
:104B5800CDF80480214C0126266008276760A660EE
:104B6800C4F80C801E4D284621464FF6FF72FEF70A
:104B780021F93046FBF7F0FB022323606760A6604B
:104B8800C4F80C80284621464FF6FF72FEF712F94A
:104B98000323236067604FF00409C4F80890C4F841
:104BA8000C80284621464FF6FF72FEF703F940F2C3
:104BB80031230193C4F800906760A660019BE3600D
:104BC800284621464FF6FF72FEF7F4F8284651466C
:104BD800FEF70EF902B0BDE8F08700BFE002002042
:104BE8005C03002038B5164C164B2360164D022383
:104BF8002B60072169600422AA60E9602B616B6160
:104C0800AB61012363600023A360E260102222618C
:104C1800402262614FF4C072A261E3614FF4006206
:104C2800226263624FF40053A362FFF7F5FE204649
:104C38002946FEF79FF840F26A50FFF783FF38BD18
:104C48005C030020400100A040030020704700BF23
:104C5800FEE700BFFEE700BFFEE700BFFEE700BFBC
:104C6800704700BF704700BF704700BF08B5FBF72B
:104C780065FB08BD014B1868704700BFBC000020E9
:104C8800034613F8012B002AFBD1181A0138704784
:104C980030B5141E9BB0054604DA8B2303604FF031
:104CA800FF301CE04FF40272ADF80C2014BF04F181
:104CB800FF322246029205924FF6FF72009104914C
:104CC800ADF80E2069461A461E9B00F075F8431C85
:104CD800BCBF8B232B6014B1009B00221A701BB041
:104CE80030BD000073B50093054B06460D461446CB
:104CF800186831462A462346FFF7CAFF02B070BD3E
:104D0800BC0000202DE9F0478E68B34282460C466D
:104D18009046994640D38A8912F4906F3AD0256814
:104D280009696F1A6569022305EB450595FBF3F5DB
:104D38007B1C4B449D4238BF1D4653050FD5294661
:104D480000F03CFB064698B121693A4600F0CBFAE0
:104D5800A38923F4906343F08003A38113E02A46D8
:104D680000F082FB064670B95046216900F0E2FA6D
:104D78000C23CAF80030A38943F04003A3814FF005
:104D8800FF30BDE8F087266165613E44ED1B266073
:104D9800A5604E46B14500D24E463246206841468F
:104DA80000F0ACFAA3689B1BA36023681E4426602E
:104DB8000020BDE8F08700002DE9F0439DB00646CD
:104DC80003938B891C060D4690460CD50B6953B985
:104DD800402100F0F3FA2860286110B90C233360F1
:104DE800CCE040236B610023099320238DF8293000
:104DF80030238DF82A3043461C4613F8012B1AB984
:104E0800B4EB08090FD002E0252AF5D1F8E73046BF
:104E1800294642464B46FFF775FF013000F0A9804E
:104E2800099B4B4409932378002B00F0A2800023B0
:104E38004FF0FF3204930793059206938DF8533091
:104E48001A9304F101084446DFF84891217848464E
:104E5800052200F039FA08F10108049B30B1C9EBCA
:104E680000000122824013430493ECE7D80644BFB4
:104E780020228DF85320190744BF2B228DF8532088
:104E880022782A2A02D0079923460EE0039A111D98
:104E980012680391002ABBBF524243F002030792F3
:104EA8000792B8BF049301340AE01C460133227804
:104EB800303A092A03D80A2000FB0121F5E70791B7
:104EC80023782E2B1AD163782A2B0AD1039B1A1D1B
:104ED8001B680392002BB8BF4FF0FF3302340593D1
:104EE8000CE0611C00220C4601312378303B092B71
:104EF80003D80A2000FB0232F5E70592DFF8988014
:104F080021784046032200F0DFF938B1049AC8EB53
:104F180000004023834013430493013421781A4846
:104F28008DF82810062204F1010800F0CDF988B1A7
:104F3800164B33B9039B073323F007030833039356
:104F480013E003AB0093304604A92A46104BAFF395
:104F5800008007E003AB0093304604A92A460C4BB7
:104F680000F092F8421C074603D0099B3B44099382
:104F780041E7AB895B0601D4099801E04FF0FF30A7
:104F88001DB0BDE8F08300BF3081000800000000BC
:104F98000D4D0008268100082C8100082DE9F843F2
:104FA80091461F468A680B69DDF820809342B8BF96
:104FB8001346C9F8003091F8432006460C4612B152
:104FC8000133C9F800302368990642BFD9F8003088
:104FD8000233C9F80030256815F006051CD094F88E
:104FE80043302268003318BF012392061FD5E11809
:104FF8005A1C302081F84300224494F8451082F866
:105008004310023313E03046394604F119020123F4
:10501800C047013007D00135E368D9F800209B1A52
:105028009D42F0DBDBE74FF0FF30BDE8F883304608
:10503800394604F14302C0470130F4D02268D9F858
:105048000050E36802F00602042A08BF5D1B2269CB
:10505800A3680CBF25EAE57500259342C4BF9B1AD7
:10506800ED184FF00009A9450ADA3046394604F12F
:105078001A020123C0470130D5D009F10109F2E72E
:105088000020BDE8F88300002DE9FF410C461746D3
:10509800227E6E2A984606460A9B01F1430100F0DB
:1050A800AF8012D8632A23D00AD8002A00F0BC8027
:1050B800582A40F0CB8084F84520DFF804E257E016
:1050C800642A1ED0692A1CD0C0E0732A00F0B08080
:1050D80009D86F2A2ED0702A40F0B880226842F092
:1050E800200222603FE0752A24D0782A3BD0ADE028
:1050F8001A68111D1960136884F8423004F14205DA
:10510800A8E020681A6810F0800F02D0101D1860FF
:1051180008E010F0400F02F10400186002D0B2F964
:10512800003000E01368002B3EDA2D225B4284F841
:10513800432039E020681A6810F0800F02D0101D53
:10514800186007E010F0400F02F10400186001D069
:10515800138800E01368227EDFF864E16F2A0CBF31
:1051680008220A221CE07822DFF858E184F845205A
:105178002268186812F0800F00F104051D6003D141
:10518800550601D5038800E00368D00744BF42F004
:10519800200222601BB9226822F02002226010221D
:1051A800002084F8430002E0DFF814E10A22656871
:1051B800A560002DA2BF206820F00400206003B97C
:1051C80065B10D46B3FBF2F002FB10331EF8033055
:1051D80005F8013D03460028F4D100E00D46082AF1
:1051E8000BD12368DA0708D5236962689A42DEBFC3
:1051F800302305F8013C05F1FF35491B21612EE0FC
:1052080025681A68606915F0800F03D0151D1D60A8
:10521800136808E015F0400F02F104051D601368DB
:1052280001D0188000E01860002323610D4616E0C5
:105238001A68111D1960156862682846002100F077
:1052480043F808B1401B6060636804E004F142055C
:1052580084F8422001232361002384F84330CDF8E9
:1052680000803046214603AA3B46FFF797FE0130EF
:1052780002D14FF0FF301FE0304639462A462369F5
:10528800C0470130F5D023689B0705D4E068039B2D
:105298009842B8BF18460FE00025E368039A9B1AA6
:1052A8009D42F3DA3046394604F119020123C0471A
:1052B8000130DED00135F0E704B0BDE8F08100BF71
:1052C800378100084881000810B5C9B202449042ED
:1052D800034606D01C788C4200F10100F7D118462D
:1052E80010BD002010BD10B5431E0A44914204D0E1
:1052F80011F8014B03F8014FF8E710BD814210B5D2
:1053080001EB020301D3421E0BE09842FBD2811845
:10531800D21AD34204D013F8014D01F8014DF8E731
:1053280010BD994204D011F8014B02F8014FF8E77B
:1053380010BD000030B500293DD051F8042C0B1FDA
:105348001D49002AB8BF9B180A680C4612B95A6052
:105358000B6030BD93420DD219685818904201BFB6
:105368005A5852181A6042685A60236030BD9942F0
:1053780003D80A4651680029F9D1146815199D42C5
:105388000AD11B682344D0188842136013D10868D7
:10539800034413604B680DE002D90C23036030BD51
:1053A8001C681819884204BF08684968596004BF16
:1053B80000191860536030BD9403002070B5CC1CF0
:1053C80024F0030408340C2C38BF0C24002C0646A7
:1053D80003DA0C233360002070BD8C42F9D3204AD5
:1053E800136810461946A1B10A68121B0ED40B2A7D
:1053F80003D90A608B188C501FE08B420DBF5A6886
:105408004A685A60026018BF0B4616E00B464968A6
:10541800E9E7144D2B681BB9304600F04BF82860BB
:105428003046214600F046F8421C0346D1D0C51C40
:1054380025F0030585420AD11C6003F10B001A1DF3
:1054480020F00700821A0AD05142995070BD3046A8
:10545800E91A00F02FF80130BBD02B46ECE770BDFD
:105468009403002090030020F8B5074615460E4621
:1054780021B91146BDE8F840FFF7A0BF1AB9FFF7F8
:1054880059FF2846F8BD00F025F8A8420ED2384644
:105498002946FFF793FF044650B131462A46FFF7E5
:1054A80022FF38463146FFF745FF01E03046F8BD98
:1054B8002046F8BD38B5064C00230546084623604B
:1054C800FEF75AFB431C02D1236803B12B6038BD99
:1054D8009803002051F8040C0028BEBF091851F8A1
:1054E800043CC018043870472E2E2F7379737465E6
:1054F8006D2F7372632F73746D333266342D686148
:105508006C2F73746D3332663478785F68616C5FC2
:10551800636F727465782E63000000002E2E2F735F
:10552800797374656D2F7372632F73746D3332667C
:10553800342D68616C2F73746D3332663478785FFC
:1055480068616C5F646D612E630000002E2E2F73FE
:10555800797374656D2F7372632F73746D3332664C
:10556800342D68616C2F73746D3332663478785FCC
:1055780068616C5F646D6132642E63002E2E2F7338
:10558800797374656D2F7372632F73746D3332661C
:10559800342D68616C2F73746D3332663478785F9C
:1055A80068616C5F6770696F2E6300002E2E2F7321
:1055B800797374656D2F7372632F73746D333266EC
:1055C800342D68616C2F73746D3332663478785F6C
:1055D80068616C5F6C7464632E63000000000000F7
:1055E8000102030401020304060708092E2E2F7383
:1055F800797374656D2F7372632F73746D333266AC
:10560800342D68616C2F73746D3332663478785F2B
:1056180068616C5F7263632E630000002E2E2F7327
:10562800797374656D2F7372632F73746D3332667B
:10563800342D68616C2F73746D3332663478785FFB
:1056480068616C5F7263635F65782E6300000000B9
:105658002E2E2F73797374656D2F7372632F737485
:105668006D333266342D68616C2F73746D33326616
:105678003478785F68616C5F7370692E630000002E
:105688002E2E2F73797374656D2F7372632F737455
:105698006D333266342D68616C2F73746D333266E6
:1056A8003478785F6C6C5F666D632E630000000071
:1056B80061626F727428292C2065786974696E6735
:1056C8002E2E2E002C2066756E6374696F6E3A203C
:1056D80000000000617373657274696F6E20222583
:1056E8007322206661696C65643A2066696C65207E
:1056F800222573222C206C696E652025642573256C
:10570800730A00006173736572745F706172616D12
:105718002829206661696C65643A2066696C652091
:10572800222573222C206C696E652025640A0000EE
:105738000A0000006D61696E28617267633D256427
:105748002C20617267763D5B000000002C20000071
:1057580022257322000000005D293B0A000000009A
:105768000000000000000000000000000000000031
:105778000000000000000000000000000000000021
:1057880000000000000000000000070007000700FC
:1057980007000700070007000200020000000000E1
:1057A80007000700000000000000000000000000E3
:1057B800000000001CE01CE01CE008400840084015
:1057C80000000000000000000000000000000000D1
:1057D80000000000000000000CC00CC00CC00CC091
:1057E8000CC03FF03FF00CC00CC03FF03FF00CC0C5
:1057F8000CC00CC00CC00CC0000000000000000071
:105808000300030007E00FE0186018001F000FC036
:1058180000E0186018601FC01F8003000300030029
:10582800000000000000000000001C002200220010
:1058380022001C6001E00F803C0031C002200220E1
:10584800022001C00000000000000000000000006D
:1058580000000000000003E00FE00C000C00060050
:105868000F301FF019E018C01FF007B0000000004B
:10587800000000000000000000000000038003801A
:10588800038001000100010000000000000000008A
:105898000000000000000000000000000000000000
:1058A800000000C000C001800180018003000300E7
:1058B800030003000300030001800180018000C091
:1058C80000C000000000000000000C000C000600F2
:1058D80006000600030003000300030003000300A2
:1058E8000600060006000C000C0000000000000086
:1058F80000000300030003001B601FE0078007800F
:105908000FC00CC0000000000000000000000000F4
:10591800000000000000000000000000000003007C
:105928000300030003003FF03FF0030003000300FF
:10593800030000000000000000000000000000005C
:10594800000000000000000000000000000000004F
:1059580000000000000003800300030006000600AA
:10596800040000000000000000000000000000002B
:105978000000000000003FE03FE0000000000000E1
:10598800000000000000000000000000000000000F
:1059980000000000000000000000000000000000FF
:1059A8000000000000000380038003800000000066
:1059B80000000000000000000060006000C000C09F
:1059C80000C00180018003000300060006000C00EF
:1059D8000C000C0018001800000000000000000077
:1059E80000000F801FC018C0306030603060306029
:1059F80030603060306018C01FC00F8000000000A9
:105A08000000000000000000000003001F001F004D
:105A18000300030003000300030003000300030066
:105A28001FE01FE000000000000000000000000070
:105A380000000F801FC038E03060006000C00180A7
:105A4800030006000C0018003FE03FE000000000E3
:105A5800000000000000000000000F803FC030E0A0
:105A6800006000E007C007C000E00060006060E080
:105A78007FC03F8000000000000000000000000020
:105A8800000001C003C003C006C00CC00CC018C091
:105A980030C03FE03FE000C003E003E0000000004A
:105AA800000000000000000000001FC01FC0180018
:105AB80018001F801FC018E000600060006030E020
:105AC8003FC01F8000000000000000000000000030
