:020000040800F2
:1000000000000320DD020008B9150008BD15000836
:10001000C1150008C5150008C9150008000000003A
:10002000000000000000000000000000CD150008E6
:10003000D115000800000000D5150008D9150008EA
:10004000090400080904000809040008090400085C
:100050000904000809040008E11500080904000863
:10006000090400080904000809040008090400083C
:10007000090400080904000809040008090400082C
:10008000090400080904000809040008090400081C
:10009000090400080904000809040008090400080C
:1000A00009040008090400080904000809040008FC
:1000B00009040008090400080904000809040008EC
:1000C00009040008090400080904000809040008DC
:1000D00009040008090400080904000809040008CC
:1000E00009040008090400080904000809040008BC
:1000F00009040008090400080904000809040008AC
:10010000090400080904000809040008090400089B
:10011000090400080904000809040008090400088B
:10012000090400080904000809040008090400087B
:10013000090400080904000809040008090400086B
:10014000090400080904000809040008090400085B
:10015000090400080904000809040008090400084B
:10016000090400080904000809040008090400083B
:100170000904000809040008090400080000000040
:10018000090400080904000809040008090400081B
:10019000090400080904000809040008090400080B
:1001A00009040008090400080904000800B583B028
:1001B00001F0C2F8384B394A1360394A13603949A3
:1001C0000CE00A684B6801F10C04886803E01168D0
:1001D0001960043304329842F9D82146324B9942CF
:1001E000EFD32E4B1A68314B9A4204D12C4B1A682C
:1001F0002F4B9A4200D0FEE7274B2E4A13602E4A1F
:1002000013602E4B0AE0194651F8082B5B6802E098
:100210000020106004329342FAD80B46284A9342D9
:10022000F1D3244B1B6813B9234B1B6803B1FEE7C2
:1002300001F042F901A8694601F028F8214B224D4E
:10024000ED1AAD10002404E01E4B53F824309847FB
:100250000134A542F8DC1D4B1D4DED1AAD100024F4
:1002600004E01A4B53F8243098470134A542F8DCD7
:100270000198009901F04CF90546164B164CE41A0A
:10028000A41004E0013C134B53F824309847002C91
:10029000F8DC284600F0D6FFBABADECA000000201B
:1002A0007C0000200C040008240400087856341256
:1002B00032547698800000201C010020240400089D
:1002C000340400083404000834040008340400082E
:1002D00034040008340400083404000808B5FFF7AB
:1002E00065FF00BF00BEFEE71EF0040F0CBFEFF37A
:1002F0000880EFF309807146404A10472DE9F0432A
:1003000083B005468946124C676BA66BD4F82880EB
:10031000236B13F0020F0BD0E36A002B08DA4BF6C5
:10032000AB6101F085F818B14FF00042E2620CE0D9
:10033000084800F0B3FFCDF80090284641463A4601
:10034000334600F0FDFF00BEFEE703B0BDE8F083DA
:1003500000ED00E03420000800BEFEE71EF0040FB0
:100360000CBFEFF30880EFF309807146244A104771
:100370002DE9F04182B007468846084C666BA56BB4
:10038000A46A074800F08AFFCDF80080384621466D
:1003900032462B4600F0D4FF00BEFEE700ED00E041
:1003A000442000081EF0040F0CBFEFF30880EFF3A9
:1003B00009807146134A10472DE9F04182B0074683
:1003C0008846084C666BA56BA46A074800F066FF78
:1003D000CDF800803846214632462B4600F0B0FF6B
:1003E00000BEFEE700ED00E05020000800BEFEE782
:1003F00000BEFEE700BEFEE770470000FD020008F9
:0C04000071030008B903000800BEFEE70D
:10040C009C20000800000020800000209C20000898
:10041C0000000010000000108000002020010020CF
:08042C000000001000000010A8
:10043400704700BF10B5044600F0E6FE064BA3FB70
:100444000020800900F0B0F84FF0FF302146002270
:1004540000F052F8002010BDD34D621008B50B4BCC
:100464001A6842F400721A601A6842F480621A60D0
:100474001A6842F480721A60032000F01FF80F20FB
:10048400FFF7D8FFFFF7D4FF002008BD003C02406F
:10049400024B1A6801321A60704700BF84000020C2
:1004A400014B1868704700BF84000020024B1A6893
:1004B40022F002021A60704710E000E010B5044612
:1004C400C31E042B03D90A48A42101F033F804F015
:1004D4000704084BD86820F4E0600004000C40EAEC
:1004E400042040F0BF6040F40030D86010BD00BF6D
:1004F400741E000800ED00E070B506460D46144673
:100504000F2A03D91A48BC2101F014F80F2D03D97E
:100514001748BD2101F00EF8164BDB68C3F3022324
:10052400C3F10701042928BF04211A1D062A01D991
:10053400033B00E00023012202FA01F101390D40DE
:100544009D4002FA03F3013B1C402C43002E06DAC3
:1005540006F00F062401E4B2074B9C5570BD24013C
:10056400E4B206F1604000F5614080F8004370BDDC
:10057400741E000800ED00E014ED00E010B5041E48
:1005840003DA0748D02100F0D5FF620904F01F0404
:10059400012303FA04F4034B43F8224010BD00BFC7
:1005A400741E000800E100E00138B0F1807F0AD237
:1005B400064B5860F021064A82F823100020986008
:1005C40007221A6070470120704700BF10E000E066
:1005D40000ED00E02DE9F84F06460D46AC4B98427D
:1005E4002BD003F58063984227D003F580639842AB
:1005F40023D003F5806398421FD003F580639842AB
:100604001BD003F58063984217D003F580639842AA
:1006140013D003F5806398420FD003F580639842AA
:100624000BD003F58063984207D003F580639842AA
:1006340003D09848C52100F07DFF2B881BB995484D
:10064400C62100F077FF6B68012B22D9112B20D033
:10065400022B1ED0122B1CD08F4A934219D002F5C4
:100664008012934215D002F58012934211D0A2F564
:10067400F81293420DD002F58012934209D002F58C
:100684008012934205D0032B03D08248C72100F087
:1006940051FFAB68022B03D97E48C82100F04AFF02
:1006A400002436E1A1460127A7402B6803EA070886
:1006B400B84540F02D816B68022B01D0122B59D123
:1006C4002B69002B45D0092B43D0002B41D0002BA4
:1006D4003FD0F3B3EBB3012B3BD03AD0022B38D04D
:1006E40037D036D0032B34D0042B32D031D030D095
:1006F400052B2ED02DD0092B2BD0062B29D0092B3E
:1007040027D0072B25D024D023D0082B21D020D0CC
:100714001FD0092B1DD01CD00A2B1AD019D00B2B9B
:1007240017D00C2B15D014D00D2B12D00F2B10D0AA
:10073400052B0ED00DD00CD0082B0AD009D00C2BD1
:1007440007D0062B05D00E2B03D05248D92100F038
:10075400F1FEE308083356F8231004F00702920070
:100764000F20904021EA0000296901FA02F20243B5
:1007740046F8232032684FEA440A4FF0030B0BFA81
:100784000AFB6FEA0B0B0BEA02026B6803F003032C
:1007940003FA0AF3134333606B685A1E012A03D920
:1007A400112B01D0122B19D1EB68032B03D9394833
:1007B400EC2100F0BFFEB2680BEA0202EB6803FA18
:1007C4000AF31343B360736823EA07076B68C3F340
:1007D400001303FA09F949EA07077760F3680BEA9B
:1007E400030BAB6803FA0AF343EA0B03F3606B6889
:1007F40013F0805F00F08C80284B5A6C42F48042E6
:100804005A64A308991C264A52F8210004F00302F2
:1008140092000F21914020EA01011D48864241D0F7
:1008240000F58060864231D000F5806086422BD08E
:1008340000F58060864225D000F5806086421FD096
:1008440000F58060864219D000F58060864213D09E
:1008540000F5806086420DD000F58060864207D0A6
:1008640000F58060864201D109201CE00A201AE0CC
:10087400082018E0072016E0062014E0052012E006
:10088400042010E003200EE002200CE001200AE026
:1008940000000240A81E00080000111000380240A9
:1008A40000380140002000FA02F20A4302331B49D7
:1008B40041F823201A4B1A686FEA080303EA02017D
:1008C400686810F4803F01D048EA0201144A1160BC
:1008D400526803EA0201686810F4003F01D048EA54
:1008E40002010F4A5160926803EA0201686810F439
:1008F400801F01D048EA0201094A9160D26813407E
:10090400696811F4001F01D048EA0203044AD36065
:1009140001340F2C7FF6C6AEBDE8F88F00380140D5
:10092400003C014070B5054614460E4621B90948FD
:100934004FF4D67100F0FEFD012C04D9054840F2B5
:10094400AD1100F0F7FD0CB1AE6170BD3604AE61BF
:1009540070BD00BFA81E000838B504460D4621B975
:10096400044840F2C31100F0E5FD63695D40656130
:1009740038BD00BFA81E000808B5044B5B690342DC
:1009840003D0024B586100F0CDFD08BD003C01408E
:1009940038B5044603680F2B04D9B04840F21B1144
:1009A40000F0C8FD236813F0010F5FD06368012BCA
:1009B40006D9052B04D0A9484FF4907100F0BAFD74
:1009C400A74B9B6803F00C03042B0AD0A44B9B6831
:1009D40003F00C03082B0DD1A14B5B6813F4800FBB
:1009E40008D09F4B1B6813F4003F3FD06368002B73
:1009F4003CD1F9E100229B4B1A70FFF751FD0546EB
:100A040007E0FFF74DFD401B41F28833984200F2A6
:100A1400ED81934B1B6813F4003FF2D12279914B83
:100A24001A7063688BB1FFF73BFD054607E0FFF7DB
:100A340037FD401B41F28833984200F2D981884B3C
:100A44001B6813F4003FF2D010E0FFF729FD0546C0
:100A540007E0FFF725FD401B41F28833984200F27E
:100A6400C9817F4B1B6813F4003FF2D1236813F054
:100A7400020F6CD0E368012B04D978484FF4B071AD
:100A840000F058FD23691F2B04D9744840F261110A
:100A940000F050FD724B9B6813F00C0F0AD0704BA2
:100AA4009B6803F00C03082B1CD16D4B5B6813F49B
:100AB400800F17D16A4B1B6813F0020F03D0E36851
:100AC400012B40F09981664B196821F0F8012269E5
:100AD400F82090FAA0F0B0FA80F0C0B282400A4345
:100AE4001A6034E0E36803B301225F4B1A60FFF736
:100AF400D7FC054605E0FFF7D3FC401B642800F251
:100B04007D81574B1B6813F0020FF4D0544B1968C6
:100B140021F0F8012269F82090FAA0F0B0FA80F0F0
:100B2400C0B282400A431A6011E000224E4B1A60A0
:100B3400FFF7B6FC054605E0FFF7B2FC401B64284E
:100B440000F25E81464B1B6813F0020FF4D1236858
:100B540013F0080F2ED06369012B04D93F484FF4DA
:100B6400D07100F0E7FC636993B101223F4B1A6036
:100B7400FFF796FC054605E0FFF792FC401B64284E
:100B840000F24081364B5B6F13F0020FF4D011E09A
:100B94000022364B1A60FFF783FC054605E0FFF799
:100BA4007FFC401B642800F22F812D4B5B6F13F0F8
:100BB400020FF4D1236813F0040F6ED0A368012B45
:100BC40006D9052B04D025484FF4E57100F0B2FC9A
:100BD400234B1A6C42F080521A64A3F5E4331A686A
:100BE40042F480721A60FFF75BFC054605E0FFF7EC
:100BF40057FC401B642800F209811D4B1B6813F449
:100C0400807FF4D000221B4B1A70FFF749FC054685
:100C140007E0FFF745FC401B41F28833984200F29D
:100C2400F7800F4B1B6F13F0020FF2D1227A114B96
:100C34001A70A368012B1FD1FFF732FC054607E0A9
:100C4400FFF72EFC401B41F28833984200F2E28009
:100C5400034B1B6F13F0020FF2D01EE0E81E0008D6
:100C6400003802400238024000004742800E4742EA
:100C74000070004070380240FFF712FC054607E0A0
:100C8400FFF70EFC401B41F28833984200F2C48007
:100C9400674B1B6F13F0020FF2D1A369022B04D927
:100CA400644840F20E2100F045FCA369002B00F0DB
:100CB400B5805F4A926802F00C02082A00F0B08006
:100CC400022B7ED1E3693BB1B3F5800F04D05948C0
:100CD40040F2172100F02EFC236A3F2B04D955481B
:100CE4004FF4067100F026FC636AC03BF02B04D974
:100CF400504840F2192100F01DFCA36A022B0AD0CF
:100D0400042B08D0062B06D0082B04D0494840F207
:100D14001A2100F00FFCE36A043B0B2B04D945486D
:100D240040F21B2100F006FC0022434B1A60FFF73F
:100D3400B7FB054604E0FFF7B3FB401B642871D8FA
:100D44003B4B1B6813F0007FF5D1236A626A47F6B8
:100D5400C07191FAA1F1B1FA81F1C9B28A4043EAB2
:100D64000201A36A5B085A1E4FF4403393FAA3F3BB
:100D7400B3FA83F3DBB29A400A43E3691343E16AAB
:100D84004FF0706292FAA2F2B2FA82F2D2B201FA8F
:100D940002F21A4342F00052254B5A600122264BBC
:100DA4001A60FFF77DFB044604E0FFF779FB001BA4
:100DB400642839D81E4B1B6813F0007FF5D000203F
:100DC40038BD00221C4B1A60FFF76AFB044604E09E
:100DD400FFF766FB001B642828D8154B1B6813F02B
:100DE400007FF5D1002038BD012038BD032038BD77
:100DF400032038BD032038BD012038BD032038BD91
:100E0400032038BD032038BD032038BD032038BD7E
:100E1400032038BD032038BD032038BD002038BD71
:100E2400012038BD032038BD032038BD032038BD60
:100E340000380240E81E00086000474270B50446CE
:100E44000D460368013B0E2B04D9884840F27E21ED
:100E540000F070FB0F2D04D9844840F27F2100F08C
:100E640069FB834B1B6803F00F03AB4280F08B805C
:100E7400EAB27F4B1A701B6803F00F03AB4240F0D9
:100E84005181236813F0020F1DD0A368A3B1802BF6
:100E940012D0902B10D0A02B0ED0B02B0CD0C02B86
:100EA4000AD0D02B08D0E02B06D0F02B04D06F480A
:100EB40040F2952100F03EFB6E4B996821F0F00161
:100EC400A2680A439A60236813F0010F00F0E880D7
:100ED4006368022B04D965484FF4277100F02AFB9C
:100EE4006368012B05D1634A126812F4003F0ED1E6
:100EF4001AE1022B05D15F4A126812F0007F06D175
:100F040014E15C4A126812F0020F00F01181594A90
:100F1400916821F003010B439360FFF7C1FA054682
:100F24006368012B0FD107E0FFF7BAFA401B41F2C7
:100F34008833984200F2FE804E4B9B6803F00C030A
:100F4400042BF1D1ACE0022B17D107E0FFF7A8FA8C
:100F5400401B41F28833984200F2EE80454B9B6877
:100F640003F00C03082BF1D19AE0FFF799FA401B28
:100F740041F28833984200F2E1803E4B9B6813F0C3
:100F84000C0FF2D18CE0236813F0020F1DD0A3687C
:100F9400A3B1802B12D0902B10D0A02B0ED0B02B4D
:100FA4000CD0C02B0AD0D02B08D0E02B06D0F02BCD
:100FB40004D02E484FF4397100F0BCFA2D4B9968D7
:100FC40021F0F001A2680A439A60236813F0010F2C
:100FD4005ED06368022B04D9244840F2EB2100F070
:100FE400A9FA6368012B05D1224A126812F4003F62
:100FF4000ED1A5E0022B05D11E4A126812F0007F23
:1010040006D19FE01B4A126812F0020F00F09C8088
:10101400184A916821F003010B439360FFF740FAEB
:1010240006466368012B0FD107E0FFF739FA801BEE
:1010340041F28833984200F289800E4B9B6803F09A
:101044000C03042BF1D123E0022B1CD106E0FFF7A3
:1010540027FA801B41F28833984279D8054B9B6864
:1010640003F00C03082BF2D112E000BFE81E0008C5
:10107400003C024000380240FFF712FA801B41F2A4
:101084008833984266D8354B9B6813F00C0FF3D124
:10109400EAB2334B1A701B6803F00F03AB425BD107
:1010A400236813F0040F19D0E36883B1B3F5805FAC
:1010B4000DD0B3F5A05F0AD0B3F5C05F07D0B3F588
:1010C400E05F04D0274840F23B3100F033FA234B71
:1010D400996821F4E051E2680A439A60236813F0A6
:1010E400080F1AD0236983B1B3F5805F0DD0B3F52F
:1010F400A05F0AD0B3F5C05F07D0B3F5E05F04D0BA
:10110400184840F2423100F015FA144B9A6822F460
:101114006042216942EAC1029A600F20FFF78AF90E
:10112400002070BD012070BD012070BD012070BD84
:10113400012070BD032070BD032070BD032070BD6D
:10114400012070BD012070BD012070BD032070BD61
:10115400032070BD032070BD012070BD0038024023
:10116400003C0240E81E0008244B9B6803F00C037B
:10117400042B40D0082B01D0214870471F4B5868DE
:1011840000F03F005B6813F4800F11D01D4BB3FBDC
:10119400F0F01A4B5A6847F6C0731A4093FAA3F357
:1011A400B3FA83F3DBB222FA03F303FB00F010E09B
:1011B400134BB3FBF0F0114B5A6847F6C0731A4057
:1011C40093FAA3F3B3FA83F3DBB222FA03F303FB38
:1011D40000F00A4B5A6802F440324FF4403393FA59
:1011E400A3F3B3FA83F3DBB222FA03F301335B0014
:1011F400B0FBF3F070470348704700BF003802406B
:101204000024F40000127A0008B5FFF7ADFF094B83
:101214009A6802F0F002F02393FAA3F3B3FA83F38B
:10122400DBB222FA03F3044AD35CD840034B1860C0
:1012340008BD00BF00380240D81E0008140000207A
:10124400FEE700BF08B50D4B1B6813B90C4A0B4BE6
:101254001A600A4B1B68033020F003001844094A43
:10126400904206D900F0E0F90C2303604FF0FF3000
:1012740008BD024A1060184608BD00BF880000205F
:101284002001002000FC022001230360014B0B60BD
:10129400704700BF040000200FB400B583B004AB56
:1012A40053F8042B01930848802100F0F5F9011E3E
:1012B40003DD054800F03AF80146084603B05DF83E
:1012C40004EB04B0704700BF900000202DE9F04308
:1012D40085B004468846435C0BBB0425284621465A
:1012E400ABBE04461EE0102F34BF3E46102600233A
:1012F40006E014F8015B04AA1A4402F8105C0133F6
:10130400B342F6D304AA1344002203F8102CE9468E
:10131400042528464946ABBE0546BF1B00E00F46E0
:10132400002FE0D1404605B0BDE8F08308B5FFF7D3
:10133400CDFF08BD08B500F057F908BDF8B504465F
:101344000D4617461E462648FFF7A6FF2548216886
:10135400FFF7A2FF24486168FFF79EFF2348A168B6
:10136400FFF79AFF2248E168FFF796FF21482169B9
:10137400FFF792FF20486169FFF78EFF1F48A169BC
:10138400FFF78AFF1E48E169FFF786FF1D48FFF754
:1013940083FF1D482946FFF77FFF1C4CE16A1C4868
:1013A400FFF77AFF216B1B48FFF776FFE16B1A48C2
:1013B400FFF772FF15F0800F03D018483946FFF786
:1013C4006BFF15F4004F03D015483146FFF764FF57
:1013D4001448FFF761FF14480699FFF75DFFF8BD55
:1013E400181F0008281F0008381F0008481F00089D
:1013F400581F0008681F0008781F0008881F00088D
:10140400981F0008A81F0008B41F000800ED00E0A2
:10141400C41F0008D41F0008E41F0008F41F0008BC
:1014240004200008142000081C20000883691A887E
:101434008A4207D10268033A012A05D8023383613C
:1014440001207047002070470020704710B592B00B
:10145400174B1A6C42F080521A64A3F5E4331A68ED
:1014640042F440421A600123019302930224079438
:101474004FF480030893082309934FF4A8730A9345
:101484000B9407230C9301A8FFF782FA0F230D9303
:101494000E9400230F934FF4A05310934FF48053F2
:1014A40011930DA80521FFF7C9FC12B010BD00BFB0
:1014B4000038024008B500F097F8FEF7CFFFFEF7BA
:1014C400F5FFFFF7C3FF08BD10B586B00C4B1A6BD0
:1014D40042F001021A630B4B02930024039406A901
:1014E400012341F8143D0848FFF774F8062002214F
:1014F4002246FFF701F80620FFF740F806B010BDBA
:1015040000380240000021100000024008B5FEF738
:10151400A5FF002000F010F8012000F00DF8FFF7FF
:10152400D3FFFEE708B5012802D1002000F032F80D
:1015340008BD00BFFEE700BF70B586B0044628B9F9
:10154400114B1A6B42F040021A6306E0012804D1E1
:101554000D4B1A6B42F040021A630C4B33F81450D3
:10156400019501230293039302230493084E56F832
:10157400240001A9FFF72EF856F82400294600227A
:10158400FFF7D0F906B070BD0038024060200008B3
:101594000C00002008B50346044A52F82000044A0F
:1015A40032F81310FFF7D8F908BD00BF0C00002073
:1015B40060200008704700BFFEE700BFFEE700BFE1
:1015C400FEE700BFFEE700BF704700BF704700BFE3
:1015D400704700BF08B5FEF75BFF08BD08B50120E2
:1015E400FFF7CAF908BD00BF0C4B1A6842F00102AC
:1015F4001A60002199601A6822F0847222F4803201
:101604001A60074A5A601A6822F480221A60D96064
:101614004FF00062034B9A60704700BF00380240ED
:101624001030002400ED00E0014B1868704700BF43
:1016340078000020034613F8012B002AFBD1181A66
:101644000138704730B5141E9BB0054604DA8B236D
:1016540003604FF0FF301CE04FF4027200910491DC
:10166400ADF80C2014BF04F1FF3121464FF6FF7290
:1016740002910591ADF80E2069461A461E9B00F0B2
:1016840077F8431CBCBF8B232B6014B1009B002252
:101694001A701BB030BD000073B50093054B0646AD
:1016A4000D461446186831462A462346FFF7CAFFFA
:1016B40002B070BD780000202DE9F0478D68AB4280
:1016C40081460C4692461F4643D38B8913F4906F90
:1016D4003DD026680969C1EB06086669022206EB5B
:1016E400460696FBF2F608F101023A44964238BFE8
:1016F40016465B050FD5314600F026FB054698B12A
:101704002169424600F0B7FAA38923F4906343F0B9
:101714008003A38113E0324600F06AFB054670B9EA
:101724004846216900F0CCFA0C23C9F80030A3899B
:1017340043F04003A3814FF0FF30BDE8F0872561FB
:1017440066614544C8EB06062560A6603D46AF4287
:1017540000D23D462A462068514600F095FAA36817
:101764005B1BA36023681D4425600020BDE8F0874F
:101774002DE9F0439DB0074603938B891C060D4663
:1017840016460CD50B6953B9402100F0DDFA2860E8
:10179400286110B90C233B60C8E040236B6100232F
:1017A400099320238DF8293030238DF82A303346CD
:1017B4001C4613F8012B1AB9B4EB06090FD002E04A
:1017C400252AF5D1F8E73846294632464B46FFF735
:1017D40073FF013000F0A580099B4B4409932378E3
:1017E400002B00F09E8000234FF0FF3204930793F8
:1017F400059206938DF853301A9304F101094C466F
:101804004D4E21783046052200F026FA09F10109EF
:10181400049B28B1861B0120B04003430493EEE7E8
:10182400D90644BF20228DF853201A0744BF2B2227
:101834008DF8532022782A2A02D0079B21460EE0F5
:10184400039A111D12680391002A01DB079204E038
:10185400524243F002030792049301340AE00C4617
:1018640001312278303A092A03D80A2000FB0323E5
:10187400F5E7079323782E2B1AD163782A2B0AD104
:10188400039B1A1D1B680392002B04F10204B8BFCA
:101894004FF0FF330BE0611C00230C46013122782A
:1018A400303A092A03D80A2000FB0323F5E70593FD
:1018B400224E21783046032200F0CEF930B1861B47
:1018C400049B4020B04003430493013421781C4816
:1018D4008DF828100622661C00F0BEF988B1194B59
:1018E40033B9039B073323F007030833039314E04E
:1018F40003AB0093384604A92A46134BAFF3008088
:1019040007E003AB0093384604A92A460E4B00F0C7
:101914008FF8B0F1FF3F804603D0099B43440993FD
:1019240045E7AB895B0601D4099801E04FF0FF302D
:101934001DB0BDE8F08300BF662000086C200008DD
:101944007020000800000000BD1600082DE9F843CF
:1019540015461F468A680B69DDF820809A42A8BFA5
:1019640013462B6091F8432006460C460AB1013316
:101974002B602368990602D52B6802332B602368F9
:1019840013F006091DD094F843302268003318BFC1
:10199400012392061FD5E1185A1C302081F8430018
:1019A400224494F8451082F84310023313E0304681
:1019B400394604F119020123C047013007D009F167
:1019C4000109E2682B68D31A9945F0DBDBE74FF095
:1019D400FF30BDE8F8833046394604F14302C0477E
:1019E4000130F4D023682A68E16803F00603042B6D
:1019F40008BFC2EB01052369A2680CBF25EAE5759F
:101A040000259A42C4BFC3EB0203ED184FF000094E
:101A1400A9450ADA3046394604F11A020123C047BF
:101A24000130D4D009F10109F2E70020BDE8F883C0
:101A34002DE9FF470E7E0C9D6E2E80460C46914686
:101A44009A4601F1430000F0A58011D8632E22D0FC
:101A540009D8002E00F0AF80582E40F0BF8081F8E6
:101A640045607B4A4FE0642E1ED0692E1CD0B5E041
:101A7400732E00F0A48009D86F2E2BD0702E40F066
:101A8400AD800B6843F020030B6038E0752E21D045
:101A9400782E34D0A2E02B681A1D1B682A6001F14D
:101AA400420781F842309DE022682B6812F0800FD3
:101AB40003D01A1D2A601D6805E05106F9D51A1DC8
:101AC4002A60B3F90050002D39DA2D236D4284F8D1
:101AD400433034E022682B6812F0800F03D01A1DC3
:101AE4002A601D6804E05206F9D51A1D2A601D8873
:101AF400237E574A6F2B14BF0A2308231BE0782345
:101B0400544A84F845302368296813F0800F01F1A2
:101B140004062E6001D00D6802E05F06FBD50D8837
:101B2400DE0744BF43F0200323601DB9236823F07C
:101B3400200323601023002184F8431001E0444A69
:101B44000A236668A660002E03DB216821F00401E5
:101B5400216005B96EB104F14201B5FBF3F603FB54
:101B640016550F46555D01F801593546002EF4D13E
:101B740000E00746082B0AD12368DD0707D5626811
:101B840023699A4203DC302307F8013C013FC01B60
:101B940020612CE009682B68626911F0800F04D081
:101BA400191D29601B681A6005E04906F8D5191D3E
:101BB40029601B681A8000232361074617E02B68FD
:101BC4001A1D2A601F683846FFF734FD63682061D8
:101BD400984288BF23612369636005E004F14207EA
:101BE40084F8426001232361002384F84330CDF854
:101BF40000A04046214603AA4B46FFF7A7FE01304A
:101C040002D14FF0FF301FE0404649463A4623696F
:101C1400D0470130F5D023689B0705D4E068039BC7
:101C24009842B8BF18460FE00025E268039BD31A18
:101C34009D42F3DA4046494604F119020123D04794
:101C44000130DED00135F0E704B0BDE8F08700BF15
:101C5400772000088820000810B5C9B202449042D9
:101C6400034606D01C788C4200F10100F7D11846D7
:101C740010BD002010BD10B50023934203D0CC5CEE
:101C8400C4540133F9E710BD814270B501D3002378
:101C94000EE08C18A042FAD28518134613F1FF33D4
:101CA40005D3514266182944F65CCE54F6E770BD5C
:101CB400934203D0CC5CC4540133F9E770BD0000F7
:101CC40030B500293CD051F8042C0B1F1D49002AC3
:101CD400B8BF9B180A680C4612B95A600B6030BD35
:101CE40093420DD219685818904203D15A5811449E
:101CF400426819605A60236030BD994203D80A468D
:101D040051680029F9D1146815199D420AD11B683C
:101D14002344D0188842136012D108680344136026
:101D24004B680CE002D90C23036030BD18681C1802
:101D34008C4203D10C684968204418605960536090
:101D440030BD00BF1401002070B5CD1C25F0030583
:101D540008350C2D38BF0C25002D06463FDB8D427F
:101D64003DD3214B1C6818462146A1B10B685B1B6F
:101D74000ED40B2B03D90B60CC18CD501FE08C4232
:101D840002D1626802601AE04B6863600C4616E098
:101D94000C464968E9E7154C23681BB9304600F046
:101DA4004DF820602946304600F048F8431C0146AF
:101DB40015D0C41C24F0030484420AD1256004F124
:101DC4000B00231D20F00700C31A0BD05A42E25027
:101DD40070BD3046611A00F031F80130EED10C23A9
:101DE4003360002070BD00BF1401002010010020EA
:101DF400F8B5064614460D4621B91146BDE8F8402B
:101E0400FFF7A2BF1AB9FFF75BFF2046F8BD00F049
:101E140025F8A0420ED230462146FFF795FF07462B
:101E240050B129462246FFF726FF30462946FFF7E0
:101E340047FF01E02846F8BD3846F8BD38B5064CE2
:101E44000023054608462360FFF7FCF9431C02D132
:101E5400236803B12B6038BD1801002051F8040C2D
:101E6400002802DA04390B5818440438704700007B
:101E74002E2E2F73797374656D2F7372632F7374A1
:101E84006D333266342D68616C2F73746D33326632
:101E94003478785F68616C5F636F727465782E6301
:101EA400000000002E2E2F73797374656D2F7372EA
:101EB400632F73746D333266342D68616C2F7374C1
:101EC4006D3332663478785F68616C5F6770696F10
:101ED4002E63000000000000010203040102030459
:101EE400060708092E2E2F73797374656D2F73728C
:101EF400632F73746D333266342D68616C2F737481
:101F04006D3332663478785F68616C5F7263632E18
:101F140063000000537461636B206672616D653AFF
:101F24000A000000205230203D2020253038580A75
:101F340000000000205231203D2020253038580A6E
:101F440000000000205232203D2020253038580A5D
:101F540000000000205233203D2020253038580A4C
:101F64000000000020523132203D20253038580A2C
:101F740000000000204C52203D2020253038580A13
:101F840000000000205043203D2020253038580A0E
:101F94000000000020505352203D20253038580ABC
:101FA400000000004653522F4641523A0A000000F6
:101FB4002043465352203D2020253038580A000043
:101FC4002048465352203D2020253038580A00002E
:101FD4002044465352203D2020253038580A000022
:101FE4002041465352203D2020253038580A000015
:101FF400204D4D464152203D20253038580A0000DE
:102004002042464152203D2020253038580A000005
:102014004D6973630A000000204C522F4558435FFA
:1020240052455455524E3D20253038580A00000080
:102034005B486172644661756C745D0A000000005F
:102044005B4275734661756C745D0A005B55736120
:1020540067654661756C745D0A00000000200040ED
:102064004300232D302B2000686C4C0065666745C7
:1020740046470030313233343536373839414243FC
:1020840044454600303132333435363738396162AD
:052094006364656600B5
:10209C00785634128C00002000000000001802401A
:1020AC00001802400024F4000000000000000000B2
:1020BC000000000000000000000000000000000014
:1020CC000000000000000000642000080000000078
:1020DC0000000000000000000000000000000000F4
:1020EC0000000000000000000000000000000000E4
:1020FC0000000000000000000000000000000000D4
:10210C0000000000000000001800002032547698F7
:04000005080001AD41
:00000001FF
